{
  "contractName": "Escrow",
  "abi": [
    {
      "inputs": [
        {
          "internalType": "address",
          "name": "token",
          "type": "address"
        }
      ],
      "stateMutability": "nonpayable",
      "type": "constructor"
    },
    {
      "inputs": [
        {
          "internalType": "uint256",
          "name": "",
          "type": "uint256"
        }
      ],
      "name": "borrowTransactions",
      "outputs": [
        {
          "internalType": "address payable",
          "name": "borrower",
          "type": "address"
        },
        {
          "internalType": "address payable",
          "name": "fulfilledBy",
          "type": "address"
        },
        {
          "internalType": "uint256",
          "name": "index",
          "type": "uint256"
        },
        {
          "internalType": "uint256",
          "name": "expiration",
          "type": "uint256"
        },
        {
          "internalType": "uint256",
          "name": "daiAmount",
          "type": "uint256"
        },
        {
          "internalType": "uint256",
          "name": "ethRequested",
          "type": "uint256"
        },
        {
          "internalType": "uint256",
          "name": "interestRate",
          "type": "uint256"
        },
        {
          "internalType": "bool",
          "name": "fulfilled",
          "type": "bool"
        },
        {
          "internalType": "bool",
          "name": "valid",
          "type": "bool"
        }
      ],
      "stateMutability": "view",
      "type": "function",
      "constant": true
    },
    {
      "inputs": [
        {
          "internalType": "address",
          "name": "",
          "type": "address"
        },
        {
          "internalType": "uint256",
          "name": "",
          "type": "uint256"
        }
      ],
      "name": "borrowerToTransactionIndex",
      "outputs": [
        {
          "internalType": "uint256",
          "name": "",
          "type": "uint256"
        }
      ],
      "stateMutability": "view",
      "type": "function",
      "constant": true
    },
    {
      "inputs": [
        {
          "internalType": "uint256",
          "name": "",
          "type": "uint256"
        }
      ],
      "name": "loanTransactions",
      "outputs": [
        {
          "internalType": "address",
          "name": "loaner",
          "type": "address"
        },
        {
          "internalType": "uint256",
          "name": "index",
          "type": "uint256"
        },
        {
          "internalType": "uint256",
          "name": "expiration",
          "type": "uint256"
        },
        {
          "internalType": "uint256",
          "name": "ethAmount",
          "type": "uint256"
        },
        {
          "internalType": "bool",
          "name": "active",
          "type": "bool"
        }
      ],
      "stateMutability": "view",
      "type": "function",
      "constant": true
    },
    {
      "inputs": [
        {
          "internalType": "address",
          "name": "",
          "type": "address"
        },
        {
          "internalType": "uint256",
          "name": "",
          "type": "uint256"
        }
      ],
      "name": "loanerToTransactionIndex",
      "outputs": [
        {
          "internalType": "uint256",
          "name": "",
          "type": "uint256"
        }
      ],
      "stateMutability": "view",
      "type": "function",
      "constant": true
    },
    {
      "inputs": [
        {
          "internalType": "uint256",
          "name": "expirationTimestamp",
          "type": "uint256"
        },
        {
          "internalType": "uint256",
          "name": "daiSupplied",
          "type": "uint256"
        },
        {
          "internalType": "uint256",
          "name": "ethRequested",
          "type": "uint256"
        },
        {
          "internalType": "uint256",
          "name": "interestRate",
          "type": "uint256"
        }
      ],
      "name": "borrowerCollateralDeposit",
      "outputs": [],
      "stateMutability": "nonpayable",
      "type": "function"
    },
    {
      "inputs": [
        {
          "internalType": "uint256",
          "name": "transactionIndex",
          "type": "uint256"
        }
      ],
      "name": "refundCollateralDeposit",
      "outputs": [],
      "stateMutability": "nonpayable",
      "type": "function"
    },
    {
      "inputs": [
        {
          "internalType": "address",
          "name": "borrower",
          "type": "address"
        }
      ],
      "name": "getAddressBorrowRequests",
      "outputs": [
        {
          "components": [
            {
              "internalType": "address payable",
              "name": "borrower",
              "type": "address"
            },
            {
              "internalType": "address payable",
              "name": "fulfilledBy",
              "type": "address"
            },
            {
              "internalType": "uint256",
              "name": "index",
              "type": "uint256"
            },
            {
              "internalType": "uint256",
              "name": "expiration",
              "type": "uint256"
            },
            {
              "internalType": "uint256",
              "name": "daiAmount",
              "type": "uint256"
            },
            {
              "internalType": "uint256",
              "name": "ethRequested",
              "type": "uint256"
            },
            {
              "internalType": "uint256",
              "name": "interestRate",
              "type": "uint256"
            },
            {
              "internalType": "bool",
              "name": "fulfilled",
              "type": "bool"
            },
            {
              "internalType": "bool",
              "name": "valid",
              "type": "bool"
            }
          ],
          "internalType": "struct Escrow.BorrowTransaction[]",
          "name": "",
          "type": "tuple[]"
        }
      ],
      "stateMutability": "view",
      "type": "function",
      "constant": true
    },
    {
      "inputs": [
        {
          "internalType": "address",
          "name": "requestor",
          "type": "address"
        }
      ],
      "name": "getAllBorrowRequests",
      "outputs": [
        {
          "components": [
            {
              "internalType": "address payable",
              "name": "borrower",
              "type": "address"
            },
            {
              "internalType": "address payable",
              "name": "fulfilledBy",
              "type": "address"
            },
            {
              "internalType": "uint256",
              "name": "index",
              "type": "uint256"
            },
            {
              "internalType": "uint256",
              "name": "expiration",
              "type": "uint256"
            },
            {
              "internalType": "uint256",
              "name": "daiAmount",
              "type": "uint256"
            },
            {
              "internalType": "uint256",
              "name": "ethRequested",
              "type": "uint256"
            },
            {
              "internalType": "uint256",
              "name": "interestRate",
              "type": "uint256"
            },
            {
              "internalType": "bool",
              "name": "fulfilled",
              "type": "bool"
            },
            {
              "internalType": "bool",
              "name": "valid",
              "type": "bool"
            }
          ],
          "internalType": "struct Escrow.BorrowTransaction[]",
          "name": "",
          "type": "tuple[]"
        }
      ],
      "stateMutability": "view",
      "type": "function",
      "constant": true
    },
    {
      "inputs": [
        {
          "internalType": "uint256",
          "name": "borrowIndex",
          "type": "uint256"
        }
      ],
      "name": "fulfillLoan",
      "outputs": [],
      "stateMutability": "payable",
      "type": "function",
      "payable": true
    },
    {
      "inputs": [
        {
          "internalType": "address",
          "name": "loaner",
          "type": "address"
        }
      ],
      "name": "getAddressFulfilledLoans",
      "outputs": [
        {
          "components": [
            {
              "internalType": "address",
              "name": "loaner",
              "type": "address"
            },
            {
              "internalType": "uint256",
              "name": "index",
              "type": "uint256"
            },
            {
              "internalType": "uint256",
              "name": "expiration",
              "type": "uint256"
            },
            {
              "internalType": "uint256",
              "name": "ethAmount",
              "type": "uint256"
            },
            {
              "internalType": "bool",
              "name": "active",
              "type": "bool"
            }
          ],
          "internalType": "struct Escrow.LoanTransaction[]",
          "name": "",
          "type": "tuple[]"
        }
      ],
      "stateMutability": "view",
      "type": "function",
      "constant": true
    }
  ],
  "bytecode": "0x60806040523480156200001157600080fd5b5060405162001bb638038062001bb68339818101604052810190620000379190620000a5565b806000806101000a81548173ffffffffffffffffffffffffffffffffffffffff021916908373ffffffffffffffffffffffffffffffffffffffff16021790555060006005819055506000600681905550506200011f565b6000815190506200009f8162000105565b92915050565b600060208284031215620000b857600080fd5b6000620000c8848285016200008e565b91505092915050565b6000620000de82620000e5565b9050919050565b600073ffffffffffffffffffffffffffffffffffffffff82169050919050565b6200011081620000d1565b81146200011c57600080fd5b50565b611a87806200012f6000396000f3fe6080604052600436106100915760003560e01c8063a2766df911610059578063a2766df914610196578063ac6dab99146101d3578063b32d334f14610210578063bfc3170e14610255578063bfd1e2501461027e57610091565b80630a3ff810146100965780632ee4f557146100d3578063387697e6146101105780634869dd431461012c578063915e77721461016d575b600080fd5b3480156100a257600080fd5b506100bd60048036038101906100b891906113be565b6102bb565b6040516100ca91906118ab565b60405180910390f35b3480156100df57600080fd5b506100fa60048036038101906100f591906113be565b61056a565b60405161010791906118cd565b60405180910390f35b61012a6004803603810190610125919061144c565b610784565b005b34801561013857600080fd5b50610153600480360381019061014e919061144c565b610a2c565b604051610164959493929190611858565b60405180910390f35b34801561017957600080fd5b50610194600480360381019061018f919061144c565b610a9c565b005b3480156101a257600080fd5b506101bd60048036038101906101b891906113e7565b610c38565b6040516101ca91906118ef565b60405180910390f35b3480156101df57600080fd5b506101fa60048036038101906101f591906113be565b610c66565b60405161020791906118ab565b60405180910390f35b34801561021c57600080fd5b506102376004803603810190610232919061144c565b610f06565b60405161024c9998979695949392919061176b565b60405180910390f35b34801561026157600080fd5b5061027c60048036038101906102779190611475565b610fbb565b005b34801561028a57600080fd5b506102a560048036038101906102a091906113e7565b61128e565b6040516102b291906118ef565b60405180910390f35b60608060055467ffffffffffffffff811180156102d757600080fd5b5060405190808252806020026020018201604052801561031157816020015b6102fe6112bc565b8152602001906001900390816102f65790505b50905060005b600380549050811015610560576003818154811061033157fe5b906000526020600020906008020160070160019054906101000a900460ff16801561038557506003818154811061036457fe5b906000526020600020906008020160070160009054906101000a900460ff16155b80156103fb57508373ffffffffffffffffffffffffffffffffffffffff16600382815481106103b057fe5b906000526020600020906008020160000160009054906101000a900473ffffffffffffffffffffffffffffffffffffffff1673ffffffffffffffffffffffffffffffffffffffff1614155b15610553576003818154811061040d57fe5b9060005260206000209060080201604051806101200160405290816000820160009054906101000a900473ffffffffffffffffffffffffffffffffffffffff1673ffffffffffffffffffffffffffffffffffffffff1673ffffffffffffffffffffffffffffffffffffffff1681526020016001820160009054906101000a900473ffffffffffffffffffffffffffffffffffffffff1673ffffffffffffffffffffffffffffffffffffffff1673ffffffffffffffffffffffffffffffffffffffff16815260200160028201548152602001600382015481526020016004820154815260200160058201548152602001600682015481526020016007820160009054906101000a900460ff161515151581526020016007820160019054906101000a900460ff16151515158152505082828151811061054757fe5b60200260200101819052505b8080600101915050610317565b5080915050919050565b60606000600260008473ffffffffffffffffffffffffffffffffffffffff1673ffffffffffffffffffffffffffffffffffffffff16815260200190815260200160002080549050905060608167ffffffffffffffff811180156105cc57600080fd5b5060405190808252806020026020018201604052801561060657816020015b6105f3611338565b8152602001906001900390816105eb5790505b50905060005b82811015610779576000600260008773ffffffffffffffffffffffffffffffffffffffff1673ffffffffffffffffffffffffffffffffffffffff168152602001908152602001600020828154811061066057fe5b906000526020600020015490506004818154811061067a57fe5b906000526020600020906005020160040160009054906101000a900460ff161561076b57600481815481106106ab57fe5b90600052602060002090600502016040518060a00160405290816000820160009054906101000a900473ffffffffffffffffffffffffffffffffffffffff1673ffffffffffffffffffffffffffffffffffffffff1673ffffffffffffffffffffffffffffffffffffffff1681526020016001820154815260200160028201548152602001600382015481526020016004820160009054906101000a900460ff16151515158152505083838151811061075f57fe5b60200260200101819052505b50808060010191505061060c565b508092505050919050565b60016003828154811061079357fe5b906000526020600020906008020160070160006101000a81548160ff02191690831515021790555033600382815481106107c957fe5b906000526020600020906008020160010160006101000a81548173ffffffffffffffffffffffffffffffffffffffff021916908373ffffffffffffffffffffffffffffffffffffffff1602179055506003818154811061082557fe5b906000526020600020906008020160000160009054906101000a900473ffffffffffffffffffffffffffffffffffffffff1673ffffffffffffffffffffffffffffffffffffffff166108fc349081150290604051600060405180830381858888f1935050505015801561089c573d6000803e3d6000fd5b50600260003373ffffffffffffffffffffffffffffffffffffffff1673ffffffffffffffffffffffffffffffffffffffff168152602001908152602001600020600654908060018154018082558091505060019003906000526020600020016000909190919091505560046040518060a001604052803373ffffffffffffffffffffffffffffffffffffffff16815260200160065481526020016003848154811061094357fe5b906000526020600020906008020160030154815260200134815260200160011515815250908060018154018082558091505060019003906000526020600020906005020160009091909190915060008201518160000160006101000a81548173ffffffffffffffffffffffffffffffffffffffff021916908373ffffffffffffffffffffffffffffffffffffffff16021790555060208201518160010155604082015181600201556060820151816003015560808201518160040160006101000a81548160ff021916908315150217905550505060066000815480929190600101919050555050565b60048181548110610a3957fe5b90600052602060002090600502016000915090508060000160009054906101000a900473ffffffffffffffffffffffffffffffffffffffff16908060010154908060020154908060030154908060040160009054906101000a900460ff16905085565b6000600160003373ffffffffffffffffffffffffffffffffffffffff1673ffffffffffffffffffffffffffffffffffffffff1681526020019081526020016000208281548110610ae857fe5b906000526020600020015490506000151560038281548110610b0657fe5b906000526020600020906008020160070160009054906101000a900460ff16151514610b3157600080fd5b60008054906101000a900473ffffffffffffffffffffffffffffffffffffffff1673ffffffffffffffffffffffffffffffffffffffff1663a9059cbb3360038481548110610b7b57fe5b9060005260206000209060080201600401546040518363ffffffff1660e01b8152600401610baa92919061182f565b602060405180830381600087803b158015610bc457600080fd5b505af1158015610bd8573d6000803e3d6000fd5b505050506040513d601f19601f82011682018060405250810190610bfc9190611423565b50600060038281548110610c0c57fe5b906000526020600020906008020160070160016101000a81548160ff0219169083151502179055505050565b60016020528160005260406000208181548110610c5157fe5b90600052602060002001600091509150505481565b60606000600160008473ffffffffffffffffffffffffffffffffffffffff1673ffffffffffffffffffffffffffffffffffffffff16815260200190815260200160002080549050905060608167ffffffffffffffff81118015610cc857600080fd5b50604051908082528060200260200182016040528015610d0257816020015b610cef6112bc565b815260200190600190039081610ce75790505b50905060005b82811015610efb576000600160008773ffffffffffffffffffffffffffffffffffffffff1673ffffffffffffffffffffffffffffffffffffffff1681526020019081526020016000208281548110610d5c57fe5b9060005260206000200154905060038181548110610d7657fe5b906000526020600020906008020160070160019054906101000a900460ff1615610eed5760038181548110610da757fe5b9060005260206000209060080201604051806101200160405290816000820160009054906101000a900473ffffffffffffffffffffffffffffffffffffffff1673ffffffffffffffffffffffffffffffffffffffff1673ffffffffffffffffffffffffffffffffffffffff1681526020016001820160009054906101000a900473ffffffffffffffffffffffffffffffffffffffff1673ffffffffffffffffffffffffffffffffffffffff1673ffffffffffffffffffffffffffffffffffffffff16815260200160028201548152602001600382015481526020016004820154815260200160058201548152602001600682015481526020016007820160009054906101000a900460ff161515151581526020016007820160019054906101000a900460ff161515151581525050838381518110610ee157fe5b60200260200101819052505b508080600101915050610d08565b508092505050919050565b60038181548110610f1357fe5b90600052602060002090600802016000915090508060000160009054906101000a900473ffffffffffffffffffffffffffffffffffffffff16908060010160009054906101000a900473ffffffffffffffffffffffffffffffffffffffff16908060020154908060030154908060040154908060050154908060060154908060070160009054906101000a900460ff16908060070160019054906101000a900460ff16905089565b60008054906101000a900473ffffffffffffffffffffffffffffffffffffffff1673ffffffffffffffffffffffffffffffffffffffff166323b872dd3330866040518463ffffffff1660e01b8152600401611018939291906117f8565b602060405180830381600087803b15801561103257600080fd5b505af1158015611046573d6000803e3d6000fd5b505050506040513d601f19601f8201168201806040525081019061106a9190611423565b50600160003373ffffffffffffffffffffffffffffffffffffffff1673ffffffffffffffffffffffffffffffffffffffff168152602001908152602001600020600554908060018154018082558091505060019003906000526020600020016000909190919091505560036040518061012001604052803373ffffffffffffffffffffffffffffffffffffffff168152602001600073ffffffffffffffffffffffffffffffffffffffff168152602001600554815260200186815260200185815260200184815260200183815260200160001515815260200160011515815250908060018154018082558091505060019003906000526020600020906008020160009091909190915060008201518160000160006101000a81548173ffffffffffffffffffffffffffffffffffffffff021916908373ffffffffffffffffffffffffffffffffffffffff16021790555060208201518160010160006101000a81548173ffffffffffffffffffffffffffffffffffffffff021916908373ffffffffffffffffffffffffffffffffffffffff16021790555060408201518160020155606082015181600301556080820151816004015560a0820151816005015560c0820151816006015560e08201518160070160006101000a81548160ff0219169083151502179055506101008201518160070160016101000a81548160ff021916908315150217905550505060056000815480929190600101919050555050505050565b600260205281600052604060002081815481106112a757fe5b90600052602060002001600091509150505481565b604051806101200160405280600073ffffffffffffffffffffffffffffffffffffffff168152602001600073ffffffffffffffffffffffffffffffffffffffff16815260200160008152602001600081526020016000815260200160008152602001600081526020016000151581526020016000151581525090565b6040518060a00160405280600073ffffffffffffffffffffffffffffffffffffffff1681526020016000815260200160008152602001600081526020016000151581525090565b60008135905061138e81611a0c565b92915050565b6000815190506113a381611a23565b92915050565b6000813590506113b881611a3a565b92915050565b6000602082840312156113d057600080fd5b60006113de8482850161137f565b91505092915050565b600080604083850312156113fa57600080fd5b60006114088582860161137f565b9250506020611419858286016113a9565b9150509250929050565b60006020828403121561143557600080fd5b600061144384828501611394565b91505092915050565b60006020828403121561145e57600080fd5b600061146c848285016113a9565b91505092915050565b6000806000806080858703121561148b57600080fd5b6000611499878288016113a9565b94505060206114aa878288016113a9565b93505060406114bb878288016113a9565b92505060606114cc878288016113a9565b91505092959194509250565b60006114e4838361162e565b6101208301905092915050565b60006114fd83836116e5565b60a08301905092915050565b611512816119d6565b82525050565b6115218161198e565b82525050565b6115308161198e565b82525050565b61153f8161197c565b82525050565b61154e8161197c565b82525050565b600061155f8261192a565b611569818561195a565b93506115748361190a565b8060005b838110156115a557815161158c88826114d8565b975061159783611940565b925050600181019050611578565b5085935050505092915050565b60006115bd82611935565b6115c7818561196b565b93506115d28361191a565b8060005b838110156116035781516115ea88826114f1565b97506115f58361194d565b9250506001810190506115d6565b5085935050505092915050565b611619816119a0565b82525050565b611628816119a0565b82525050565b610120820160008201516116456000850182611518565b5060208201516116586020850182611518565b50604082015161166b604085018261174d565b50606082015161167e606085018261174d565b506080820151611691608085018261174d565b5060a08201516116a460a085018261174d565b5060c08201516116b760c085018261174d565b5060e08201516116ca60e0850182611610565b506101008201516116df610100850182611610565b50505050565b60a0820160008201516116fb6000850182611536565b50602082015161170e602085018261174d565b506040820151611721604085018261174d565b506060820151611734606085018261174d565b5060808201516117476080850182611610565b50505050565b611756816119cc565b82525050565b611765816119cc565b82525050565b600061012082019050611781600083018c611527565b61178e602083018b611527565b61179b604083018a61175c565b6117a8606083018961175c565b6117b5608083018861175c565b6117c260a083018761175c565b6117cf60c083018661175c565b6117dc60e083018561161f565b6117ea61010083018461161f565b9a9950505050505050505050565b600060608201905061180d6000830186611509565b61181a6020830185611545565b611827604083018461175c565b949350505050565b60006040820190506118446000830185611509565b611851602083018461175c565b9392505050565b600060a08201905061186d6000830188611545565b61187a602083018761175c565b611887604083018661175c565b611894606083018561175c565b6118a1608083018461161f565b9695505050505050565b600060208201905081810360008301526118c58184611554565b905092915050565b600060208201905081810360008301526118e781846115b2565b905092915050565b6000602082019050611904600083018461175c565b92915050565b6000819050602082019050919050565b6000819050602082019050919050565b600081519050919050565b600081519050919050565b6000602082019050919050565b6000602082019050919050565b600082825260208201905092915050565b600082825260208201905092915050565b6000611987826119ac565b9050919050565b6000611999826119ac565b9050919050565b60008115159050919050565b600073ffffffffffffffffffffffffffffffffffffffff82169050919050565b6000819050919050565b60006119e1826119e8565b9050919050565b60006119f3826119fa565b9050919050565b6000611a05826119ac565b9050919050565b611a158161197c565b8114611a2057600080fd5b50565b611a2c816119a0565b8114611a3757600080fd5b50565b611a43816119cc565b8114611a4e57600080fd5b5056fea26469706673582212202847edaefe591b841b634a401447e6fdde00beaf3e100dd76bd66146e1b0522264736f6c634300060c0033",
  "immutableReferences": {},
  "source": "// SPDX-License-Identifier: MIT\npragma solidity >=0.6.0;\npragma experimental ABIEncoderV2;\n\nimport \"@openzeppelin/contracts/math/SafeMath.sol\";\nimport \"@openzeppelin/contracts/token/ERC20/IERC20.sol\";\n\ncontract Escrow {\n    using SafeMath for uint256;\n\n    struct BorrowTransaction {\n        address payable borrower;\n        address payable fulfilledBy; \n\n        uint256 index;\n        uint256 expiration;\n        uint256 daiAmount;\n        uint256 ethRequested;\n        uint interestRate;\n        bool fulfilled;\n        bool valid;\n    }\n\n    struct LoanTransaction {\n        address loaner;\n        uint256 index;\n        uint256 expiration;\n        uint256 ethAmount;\n        bool active;\n    }\n\n    IERC20 private _token;\n\n    mapping(address => uint[]) public borrowerToTransactionIndex;\n    mapping(address => uint[]) public loanerToTransactionIndex;\n\n    BorrowTransaction[] public borrowTransactions;\n    LoanTransaction[] public loanTransactions;\n\n    uint borrowTransactionLength;\n    uint loanTransactionLength;\n\n    constructor (address token) public {\n        _token = IERC20(token);\n        borrowTransactionLength = 0;\n        loanTransactionLength = 0;\n    }\n\n\n    function borrowerCollateralDeposit(uint256 expirationTimestamp, uint256 daiSupplied, uint256 ethRequested, uint interestRate) public {\n        _token.transferFrom(msg.sender, address(this), daiSupplied);\n\n        // Add the new index to the address's array of transactions\n        borrowerToTransactionIndex[msg.sender].push(borrowTransactionLength);\n\n        borrowTransactions.push(\n            BorrowTransaction(\n                msg.sender,\n                address(0),\n                borrowTransactionLength, \n                expirationTimestamp, \n                daiSupplied,\n                ethRequested,\n                interestRate,\n                false,\n                true\n            )\n        );\n\n        borrowTransactionLength++;\n    }\n\n    function refundCollateralDeposit(uint transactionIndex) public {\n        uint bTransactionIndex = borrowerToTransactionIndex[msg.sender][transactionIndex];\n\n        // Make sure we can withdraw\n        require(borrowTransactions[bTransactionIndex].fulfilled == false);\n\n        // Send tokens and zero-out the transaction\n        _token.transfer(msg.sender, borrowTransactions[bTransactionIndex].daiAmount);\n        borrowTransactions[bTransactionIndex].valid = false;\n\n    }\n\n    // Retrieves all borrow requests for a single address\n    function getAddressBorrowRequests(address borrower) public view returns(BorrowTransaction[] memory) {\n        uint borrowLength = borrowerToTransactionIndex[borrower].length;\n        BorrowTransaction[] memory txs = new BorrowTransaction[](borrowLength);\n\n        for (uint i = 0; i < borrowLength; i++) {\n            uint borrowIndex = borrowerToTransactionIndex[borrower][i];\n\n            if (borrowTransactions[borrowIndex].valid) {\n                txs[i] = borrowTransactions[borrowIndex];\n            }\n        }\n\n        return txs;\n    }\n\n    // Retrieves all borrow requests, except those made by the given address\n    function getAllBorrowRequests(address requestor) public view returns(BorrowTransaction[] memory) {\n        BorrowTransaction[] memory txs = new BorrowTransaction[](borrowTransactionLength);\n\n        for (uint i = 0; i < borrowTransactions.length; i++) {\n            if (borrowTransactions[i].valid && !borrowTransactions[i].fulfilled && borrowTransactions[i].borrower != requestor) {\n                txs[i] = borrowTransactions[i];\n            }\n        }\n\n        return txs;\n    }\n\n    function fulfillLoan(uint borrowIndex) public payable {\n        // Update the borrow transaction\n        borrowTransactions[borrowIndex].fulfilled = true;\n        borrowTransactions[borrowIndex].fulfilledBy = msg.sender;\n\n        // Disperse the ETH funds to the borrower\n        borrowTransactions[borrowIndex].borrower.transfer(msg.value);\n\n        // Create a new loan transaction\n         // Add the new index to the address's array of transactions\n        loanerToTransactionIndex[msg.sender].push(loanTransactionLength);\n\n        loanTransactions.push(\n            LoanTransaction(\n                msg.sender,\n                loanTransactionLength, \n                borrowTransactions[borrowIndex].expiration,\n                msg.value,\n                true\n            )\n        );\n\n        loanTransactionLength++;\n    }\n\n    function getAddressFulfilledLoans(address loaner) public view returns(LoanTransaction[] memory) {\n        uint loanLength = loanerToTransactionIndex[loaner].length;\n        LoanTransaction[] memory txs = new LoanTransaction[](loanLength);\n\n        for (uint i = 0; i < loanLength; i++) {\n            uint loanIndex = loanerToTransactionIndex[loaner][i];\n\n            if (loanTransactions[loanIndex].active) {\n                txs[i] = loanTransactions[loanIndex];\n            }\n        }\n\n        return txs;\n    }\n\n    // function borrowerCollateralDeposit(address payee, uint256 expirationTimestamp) public payable {}\n\n    // // param: payee - person receiving the funds\n    // function deposit(address payee, uint256 expirationTimestamp) public payable {\n    //     require(msg.value >= 1000, \"Must send at least 1000 wei\");\n\n\n    //     // If the user has made previous txs, find their index and add a transaction\n    //     if(addressToDeposits[payee].exists) {\n    //         deposits[addressToDeposits[payee].index].push(\n    //             Transaction(expirationTimestamp, msg.value)\n    //         );\n    //     } \n    //     // Otherwise, create a new mapping and create a new transaction array at the proper index\n    //     else {\n    //         uint newIndex = deposits.length;\n\n    //         addressToDeposits[payee] = AddressLocation(newIndex, true);\n\n    //         Transaction[] storage txs;\n    //         txs.push(Transaction(expirationTimestamp, msg.value));\n\n    //         deposits.push(txs);\n    //     }\n    // }\n\n    // // Returns a list of Transaction for the given address\n    // function getAddressDeposits(address payee) public view returns(Transaction[] memory) {\n    //     uint index = addressToDeposits[payee].index;\n\n    //     return deposits[index];\n    // }\n\n    // function getAllDeposits() public view returns(Transaction[] memory) {\n    //     Transaction[] storage txs;\n\n    //     for (uint i = 0; i < deposits.length; i++) {\n    //         for (uint j = 0; j < deposits[i].length; j++) {\n    //             Transaction memory t = deposits[i][j];\n    //             txs.push(t);\n    //         }\n    //     }\n\n    //     return txs;\n    // }\n\n    // // If able, withdraws the money in escrow to the owner\n    // function Withdraw(address payable recipient, uint transactionIndex) public {\n    //     uint index = addressToDeposits[recipient].index;\n\n    //     Transaction memory transaction = deposits[index][transactionIndex];\n\n    //     // Transaction memory transaction = deposits[recipient][transactionIndex];\n    //     uint256 expiration = transaction.expiration;\n    //     uint256 amount = transaction.amount;\n\n    //     require(expiration <= block.timestamp);\n\n    //     for (uint i = transactionIndex; i < deposits[index].length - 1; i++) {\n    //         deposits[index][i] = deposits[index][i + 1];\n    //     }\n    //     delete deposits[index][deposits[index].length - 1];\n    //     deposits[index].pop();\n        \n    //     recipient.transfer(amount);\n\n\n        \n        // for (uint i = transactionIndex; i < deposits[recipient].length - 1; i++) {\n        //     deposits[recipient][i] = deposits[recipient][i + 1];\n        // }\n        // delete deposits[recipient][deposits[recipient].length - 1];\n        // deposits[recipient].pop();\n        \n        // recipient.transfer(amount);\n    //}\n}",
  "sourcePath": "/home/alec/swap-share/src/contracts/Escrow.sol",
  "compiler": {
    "name": "solc",
    "version": "0.6.12+commit.27d51765.Emscripten.clang"
  },
  "schemaVersion": "3.3.2",
  "updatedAt": "2021-01-01T23:13:54.482Z",
  "networkType": "ethereum",
  "devdoc": {
    "kind": "dev",
    "methods": {},
    "version": 1
  },
  "userdoc": {
    "kind": "user",
    "methods": {},
    "version": 1
  }
}