{
  "contractName": "Escrow",
  "abi": [
    {
      "inputs": [
        {
          "internalType": "address",
          "name": "token",
          "type": "address"
        }
      ],
      "stateMutability": "nonpayable",
      "type": "constructor"
    },
    {
      "inputs": [
        {
          "internalType": "uint256",
          "name": "",
          "type": "uint256"
        }
      ],
      "name": "borrowTransactions",
      "outputs": [
        {
          "internalType": "uint256",
          "name": "expiration",
          "type": "uint256"
        },
        {
          "internalType": "uint256",
          "name": "amount",
          "type": "uint256"
        }
      ],
      "stateMutability": "view",
      "type": "function",
      "constant": true
    },
    {
      "inputs": [
        {
          "internalType": "address",
          "name": "",
          "type": "address"
        },
        {
          "internalType": "uint256",
          "name": "",
          "type": "uint256"
        }
      ],
      "name": "borrowerToTransactionIndex",
      "outputs": [
        {
          "internalType": "uint256",
          "name": "",
          "type": "uint256"
        }
      ],
      "stateMutability": "view",
      "type": "function",
      "constant": true
    },
    {
      "inputs": [
        {
          "internalType": "uint256",
          "name": "",
          "type": "uint256"
        }
      ],
      "name": "loanTransactions",
      "outputs": [
        {
          "internalType": "uint256",
          "name": "expiration",
          "type": "uint256"
        },
        {
          "internalType": "uint256",
          "name": "amount",
          "type": "uint256"
        }
      ],
      "stateMutability": "view",
      "type": "function",
      "constant": true
    },
    {
      "inputs": [
        {
          "internalType": "address",
          "name": "",
          "type": "address"
        },
        {
          "internalType": "uint256",
          "name": "",
          "type": "uint256"
        }
      ],
      "name": "loanerToTransactionIndex",
      "outputs": [
        {
          "internalType": "uint256",
          "name": "",
          "type": "uint256"
        }
      ],
      "stateMutability": "view",
      "type": "function",
      "constant": true
    },
    {
      "inputs": [
        {
          "internalType": "uint256",
          "name": "amount",
          "type": "uint256"
        }
      ],
      "name": "approveCollateralDeposit",
      "outputs": [],
      "stateMutability": "nonpayable",
      "type": "function"
    },
    {
      "inputs": [
        {
          "internalType": "uint256",
          "name": "expirationTimestamp",
          "type": "uint256"
        },
        {
          "internalType": "uint256",
          "name": "amount",
          "type": "uint256"
        }
      ],
      "name": "borrowerCollateralDeposit",
      "outputs": [],
      "stateMutability": "nonpayable",
      "type": "function"
    },
    {
      "inputs": [
        {
          "internalType": "address payable",
          "name": "payee",
          "type": "address"
        },
        {
          "internalType": "uint256",
          "name": "transactionIndex",
          "type": "uint256"
        }
      ],
      "name": "refundCollateralDeposit",
      "outputs": [],
      "stateMutability": "nonpayable",
      "type": "function"
    }
  ],
  "bytecode": "0x608060405234801561001057600080fd5b506040516108fa3803806108fa8339818101604052810190610032919061009d565b806000806101000a81548173ffffffffffffffffffffffffffffffffffffffff021916908373ffffffffffffffffffffffffffffffffffffffff160217905550600060058190555060006006819055505061010f565b600081519050610097816100f8565b92915050565b6000602082840312156100af57600080fd5b60006100bd84828501610088565b91505092915050565b60006100d1826100d8565b9050919050565b600073ffffffffffffffffffffffffffffffffffffffff82169050919050565b610101816100c6565b811461010c57600080fd5b50565b6107dc8061011e6000396000f3fe608060405234801561001057600080fd5b506004361061007d5760003560e01c8063b32d334f1161005b578063b32d334f146100ff578063bfd1e25014610130578063c56332de14610160578063dd837c051461017c5761007d565b80634869dd4314610082578063a2766df9146100b3578063a8f41175146100e3575b600080fd5b61009c60048036038101906100979190610584565b610198565b6040516100aa929190610691565b60405180910390f35b6100cd60048036038101906100c8919061051f565b6101c9565b6040516100da9190610676565b60405180910390f35b6100fd60048036038101906100f89190610584565b6101f7565b005b61011960048036038101906101149190610584565b6102a8565b604051610127929190610691565b60405180910390f35b61014a6004803603810190610145919061051f565b6102d9565b6040516101579190610676565b60405180910390f35b61017a600480360381019061017591906104e3565b610307565b005b610196600480360381019061019191906105ad565b61030b565b005b600481815481106101a557fe5b90600052602060002090600202016000915090508060000154908060010154905082565b600160205281600052604060002081815481106101e257fe5b90600052602060002001600091509150505481565b60008054906101000a900473ffffffffffffffffffffffffffffffffffffffff1673ffffffffffffffffffffffffffffffffffffffff1663095ea7b330836040518363ffffffff1660e01b815260040161025292919061064d565b602060405180830381600087803b15801561026c57600080fd5b505af1158015610280573d6000803e3d6000fd5b505050506040513d601f19601f820116820180604052508101906102a4919061055b565b5050565b600381815481106102b557fe5b90600052602060002090600202016000915090508060000154908060010154905082565b600260205281600052604060002081815481106102f257fe5b90600052602060002001600091509150505481565b5050565b60008054906101000a900473ffffffffffffffffffffffffffffffffffffffff1673ffffffffffffffffffffffffffffffffffffffff166323b872dd3330846040518463ffffffff1660e01b815260040161036893929190610616565b602060405180830381600087803b15801561038257600080fd5b505af1158015610396573d6000803e3d6000fd5b505050506040513d601f19601f820116820180604052508101906103ba919061055b565b50600560008154809291906001019190505550600160003373ffffffffffffffffffffffffffffffffffffffff1673ffffffffffffffffffffffffffffffffffffffff168152602001908152602001600020600554908060018154018082558091505060019003906000526020600020016000909190919091505560036040518060400160405280848152602001838152509080600181540180825580915050600190039060005260206000209060020201600090919091909150600082015181600001556020820151816001015550505050565b60008135905061049e8161074a565b92915050565b6000813590506104b381610761565b92915050565b6000815190506104c881610778565b92915050565b6000813590506104dd8161078f565b92915050565b600080604083850312156104f657600080fd5b6000610504858286016104a4565b9250506020610515858286016104ce565b9150509250929050565b6000806040838503121561053257600080fd5b60006105408582860161048f565b9250506020610551858286016104ce565b9150509250929050565b60006020828403121561056d57600080fd5b600061057b848285016104b9565b91505092915050565b60006020828403121561059657600080fd5b60006105a4848285016104ce565b91505092915050565b600080604083850312156105c057600080fd5b60006105ce858286016104ce565b92505060206105df858286016104ce565b9150509250929050565b6105f281610714565b82525050565b610601816106ba565b82525050565b6106108161070a565b82525050565b600060608201905061062b60008301866105e9565b61063860208301856105f8565b6106456040830184610607565b949350505050565b600060408201905061066260008301856105f8565b61066f6020830184610607565b9392505050565b600060208201905061068b6000830184610607565b92915050565b60006040820190506106a66000830185610607565b6106b36020830184610607565b9392505050565b60006106c5826106ea565b9050919050565b60006106d7826106ea565b9050919050565b60008115159050919050565b600073ffffffffffffffffffffffffffffffffffffffff82169050919050565b6000819050919050565b600061071f82610726565b9050919050565b600061073182610738565b9050919050565b6000610743826106ea565b9050919050565b610753816106ba565b811461075e57600080fd5b50565b61076a816106cc565b811461077557600080fd5b50565b610781816106de565b811461078c57600080fd5b50565b6107988161070a565b81146107a357600080fd5b5056fea26469706673582212205837d6b7f7c0abd6e9b24064722aee4e0aba32fbb27a0108d83acba8d9084bce64736f6c634300060c0033",
  "immutableReferences": {},
  "source": "// SPDX-License-Identifier: MIT\npragma solidity >=0.6.0;\npragma experimental ABIEncoderV2;\n\nimport \"@openzeppelin/contracts/math/SafeMath.sol\";\nimport \"@openzeppelin/contracts/token/ERC20/IERC20.sol\";\n\ncontract Escrow {\n    using SafeMath for uint256;\n\n    struct BorrowTransaction {\n        uint256 expiration;\n        uint256 amount;\n    }\n\n    struct LoanTransaction {\n        uint256 expiration;\n        uint256 amount;\n    }\n\n    IERC20 private _token;\n\n    mapping(address => uint[]) public borrowerToTransactionIndex;\n    mapping(address => uint[]) public loanerToTransactionIndex;\n\n    BorrowTransaction[] public borrowTransactions;\n    LoanTransaction[] public loanTransactions;\n\n    uint borrowTransactionLength;\n    uint loanTransactionLength;\n\n    constructor (address token) public {\n        _token = IERC20(token);\n        borrowTransactionLength = 0;\n        loanTransactionLength = 0;\n    }\n\n    function approveCollateralDeposit(uint amount) public {\n        _token.approve(address(this), amount);\n    }\n\n    function borrowerCollateralDeposit(uint256 expirationTimestamp, uint amount) public {\n        _token.transferFrom(msg.sender, address(this), amount);\n\n        // There is a new borrow transaction so we increment\n        // Then add the new index to the address's array of transactions\n        borrowTransactionLength++;\n        borrowerToTransactionIndex[msg.sender].push(borrowTransactionLength);\n\n        borrowTransactions.push(\n            BorrowTransaction(expirationTimestamp, amount)\n        );\n    }\n\n    function refundCollateralDeposit(address payable payee, uint transactionIndex) public {\n\n    }\n\n    // function borrowerCollateralDeposit(address payee, uint256 expirationTimestamp) public payable {}\n\n    // // param: payee - person receiving the funds\n    // function deposit(address payee, uint256 expirationTimestamp) public payable {\n    //     require(msg.value >= 1000, \"Must send at least 1000 wei\");\n\n\n    //     // If the user has made previous txs, find their index and add a transaction\n    //     if(addressToDeposits[payee].exists) {\n    //         deposits[addressToDeposits[payee].index].push(\n    //             Transaction(expirationTimestamp, msg.value)\n    //         );\n    //     } \n    //     // Otherwise, create a new mapping and create a new transaction array at the proper index\n    //     else {\n    //         uint newIndex = deposits.length;\n\n    //         addressToDeposits[payee] = AddressLocation(newIndex, true);\n\n    //         Transaction[] storage txs;\n    //         txs.push(Transaction(expirationTimestamp, msg.value));\n\n    //         deposits.push(txs);\n    //     }\n    // }\n\n    // // Returns a list of Transaction for the given address\n    // function getAddressDeposits(address payee) public view returns(Transaction[] memory) {\n    //     uint index = addressToDeposits[payee].index;\n\n    //     return deposits[index];\n    // }\n\n    // function getAllDeposits() public view returns(Transaction[] memory) {\n    //     Transaction[] storage txs;\n\n    //     for (uint i = 0; i < deposits.length; i++) {\n    //         for (uint j = 0; j < deposits[i].length; j++) {\n    //             Transaction memory t = deposits[i][j];\n    //             txs.push(t);\n    //         }\n    //     }\n\n    //     return txs;\n    // }\n\n    // // If able, withdraws the money in escrow to the owner\n    // function Withdraw(address payable recipient, uint transactionIndex) public {\n    //     uint index = addressToDeposits[recipient].index;\n\n    //     Transaction memory transaction = deposits[index][transactionIndex];\n\n    //     // Transaction memory transaction = deposits[recipient][transactionIndex];\n    //     uint256 expiration = transaction.expiration;\n    //     uint256 amount = transaction.amount;\n\n    //     require(expiration <= block.timestamp);\n\n    //     for (uint i = transactionIndex; i < deposits[index].length - 1; i++) {\n    //         deposits[index][i] = deposits[index][i + 1];\n    //     }\n    //     delete deposits[index][deposits[index].length - 1];\n    //     deposits[index].pop();\n        \n    //     recipient.transfer(amount);\n\n\n        \n        // for (uint i = transactionIndex; i < deposits[recipient].length - 1; i++) {\n        //     deposits[recipient][i] = deposits[recipient][i + 1];\n        // }\n        // delete deposits[recipient][deposits[recipient].length - 1];\n        // deposits[recipient].pop();\n        \n        // recipient.transfer(amount);\n    //}\n}",
  "sourcePath": "/home/alec/test-dapp/src/contracts/Escrow.sol",
  "compiler": {
    "name": "solc",
    "version": "0.6.12+commit.27d51765.Emscripten.clang"
  },
  "schemaVersion": "3.3.2",
  "updatedAt": "2020-12-28T23:53:23.921Z",
  "networkType": "ethereum",
  "devdoc": {
    "kind": "dev",
    "methods": {},
    "version": 1
  },
  "userdoc": {
    "kind": "user",
    "methods": {},
    "version": 1
  }
}