{
  "contractName": "Escrow",
  "abi": [
    {
      "inputs": [
        {
          "internalType": "address",
          "name": "token",
          "type": "address"
        }
      ],
      "stateMutability": "nonpayable",
      "type": "constructor"
    },
    {
      "inputs": [
        {
          "internalType": "uint256",
          "name": "",
          "type": "uint256"
        }
      ],
      "name": "borrowTransactions",
      "outputs": [
        {
          "internalType": "uint256",
          "name": "index",
          "type": "uint256"
        },
        {
          "internalType": "uint256",
          "name": "expiration",
          "type": "uint256"
        },
        {
          "internalType": "uint256",
          "name": "daiAmount",
          "type": "uint256"
        },
        {
          "internalType": "uint256",
          "name": "ethRequested",
          "type": "uint256"
        },
        {
          "internalType": "uint256",
          "name": "interestRate",
          "type": "uint256"
        },
        {
          "internalType": "bool",
          "name": "fulfilled",
          "type": "bool"
        },
        {
          "internalType": "bool",
          "name": "valid",
          "type": "bool"
        }
      ],
      "stateMutability": "view",
      "type": "function",
      "constant": true
    },
    {
      "inputs": [
        {
          "internalType": "address",
          "name": "",
          "type": "address"
        },
        {
          "internalType": "uint256",
          "name": "",
          "type": "uint256"
        }
      ],
      "name": "borrowerToTransactionIndex",
      "outputs": [
        {
          "internalType": "uint256",
          "name": "",
          "type": "uint256"
        }
      ],
      "stateMutability": "view",
      "type": "function",
      "constant": true
    },
    {
      "inputs": [
        {
          "internalType": "uint256",
          "name": "",
          "type": "uint256"
        }
      ],
      "name": "loanTransactions",
      "outputs": [
        {
          "internalType": "uint256",
          "name": "index",
          "type": "uint256"
        },
        {
          "internalType": "uint256",
          "name": "expiration",
          "type": "uint256"
        },
        {
          "internalType": "uint256",
          "name": "amount",
          "type": "uint256"
        }
      ],
      "stateMutability": "view",
      "type": "function",
      "constant": true
    },
    {
      "inputs": [
        {
          "internalType": "address",
          "name": "",
          "type": "address"
        },
        {
          "internalType": "uint256",
          "name": "",
          "type": "uint256"
        }
      ],
      "name": "loanerToTransactionIndex",
      "outputs": [
        {
          "internalType": "uint256",
          "name": "",
          "type": "uint256"
        }
      ],
      "stateMutability": "view",
      "type": "function",
      "constant": true
    },
    {
      "inputs": [
        {
          "internalType": "uint256",
          "name": "expirationTimestamp",
          "type": "uint256"
        },
        {
          "internalType": "uint256",
          "name": "daiSupplied",
          "type": "uint256"
        },
        {
          "internalType": "uint256",
          "name": "ethRequested",
          "type": "uint256"
        },
        {
          "internalType": "uint256",
          "name": "interestRate",
          "type": "uint256"
        }
      ],
      "name": "borrowerCollateralDeposit",
      "outputs": [],
      "stateMutability": "nonpayable",
      "type": "function"
    },
    {
      "inputs": [
        {
          "internalType": "uint256",
          "name": "transactionIndex",
          "type": "uint256"
        }
      ],
      "name": "refundCollateralDeposit",
      "outputs": [],
      "stateMutability": "nonpayable",
      "type": "function"
    },
    {
      "inputs": [],
      "name": "getAddressBorrowRequests",
      "outputs": [
        {
          "components": [
            {
              "internalType": "uint256",
              "name": "index",
              "type": "uint256"
            },
            {
              "internalType": "uint256",
              "name": "expiration",
              "type": "uint256"
            },
            {
              "internalType": "uint256",
              "name": "daiAmount",
              "type": "uint256"
            },
            {
              "internalType": "uint256",
              "name": "ethRequested",
              "type": "uint256"
            },
            {
              "internalType": "uint256",
              "name": "interestRate",
              "type": "uint256"
            },
            {
              "internalType": "bool",
              "name": "fulfilled",
              "type": "bool"
            },
            {
              "internalType": "bool",
              "name": "valid",
              "type": "bool"
            }
          ],
          "internalType": "struct Escrow.BorrowTransaction[]",
          "name": "",
          "type": "tuple[]"
        }
      ],
      "stateMutability": "view",
      "type": "function",
      "constant": true
    }
  ],
  "bytecode": "0x608060405234801561001057600080fd5b50604051610ed7380380610ed78339818101604052810190610032919061009d565b806000806101000a81548173ffffffffffffffffffffffffffffffffffffffff021916908373ffffffffffffffffffffffffffffffffffffffff160217905550600060058190555060006006819055505061010f565b600081519050610097816100f8565b92915050565b6000602082840312156100af57600080fd5b60006100bd84828501610088565b91505092915050565b60006100d1826100d8565b9050919050565b600073ffffffffffffffffffffffffffffffffffffffff82169050919050565b610101816100c6565b811461010c57600080fd5b50565b610db98061011e6000396000f3fe608060405234801561001057600080fd5b506004361061007d5760003560e01c8063ac2877fb1161005b578063ac2877fb14610100578063b32d334f1461011e578063bfc3170e14610154578063bfd1e250146101705761007d565b80634869dd4314610082578063915e7772146100b4578063a2766df9146100d0575b600080fd5b61009c6004803603810190610097919061095a565b6101a0565b6040516100ab93929190610be1565b60405180910390f35b6100ce60048036038101906100c9919061095a565b6101d7565b005b6100ea60048036038101906100e591906108f5565b610373565b6040516100f79190610bc6565b60405180910390f35b6101086103a1565b6040516101159190610ba4565b60405180910390f35b6101386004803603810190610133919061095a565b6105d4565b60405161014b9796959493929190610c18565b60405180910390f35b61016e60048036038101906101699190610983565b61063d565b005b61018a600480360381019061018591906108f5565b610847565b6040516101979190610bc6565b60405180910390f35b600481815481106101ad57fe5b90600052602060002090600302016000915090508060000154908060010154908060020154905083565b6000600160003373ffffffffffffffffffffffffffffffffffffffff1673ffffffffffffffffffffffffffffffffffffffff168152602001908152602001600020828154811061022357fe5b90600052602060002001549050600015156003828154811061024157fe5b906000526020600020906006020160050160009054906101000a900460ff1615151461026c57600080fd5b60008054906101000a900473ffffffffffffffffffffffffffffffffffffffff1673ffffffffffffffffffffffffffffffffffffffff1663a9059cbb33600384815481106102b657fe5b9060005260206000209060060201600201546040518363ffffffff1660e01b81526004016102e5929190610b7b565b602060405180830381600087803b1580156102ff57600080fd5b505af1158015610313573d6000803e3d6000fd5b505050506040513d601f19601f820116820180604052508101906103379190610931565b5060006003828154811061034757fe5b906000526020600020906006020160050160016101000a81548160ff0219169083151502179055505050565b6001602052816000526040600020818154811061038c57fe5b90600052602060002001600091509150505481565b60606000600160003373ffffffffffffffffffffffffffffffffffffffff1673ffffffffffffffffffffffffffffffffffffffff16815260200190815260200160002080549050905060608167ffffffffffffffff8111801561040357600080fd5b5060405190808252806020026020018201604052801561043d57816020015b61042a610875565b8152602001906001900390816104225790505b50905060005b600160003373ffffffffffffffffffffffffffffffffffffffff1673ffffffffffffffffffffffffffffffffffffffff168152602001908152602001600020805490508110156105cb576000600160003373ffffffffffffffffffffffffffffffffffffffff1673ffffffffffffffffffffffffffffffffffffffff16815260200190815260200160002082815481106104d957fe5b90600052602060002001549050600381815481106104f357fe5b906000526020600020906006020160050160019054906101000a900460ff16156105bd576003818154811061052457fe5b90600052602060002090600602016040518060e001604052908160008201548152602001600182015481526020016002820154815260200160038201548152602001600482015481526020016005820160009054906101000a900460ff161515151581526020016005820160019054906101000a900460ff1615151515815250508383815181106105b157fe5b60200260200101819052505b508080600101915050610443565b50809250505090565b600381815481106105e157fe5b90600052602060002090600602016000915090508060000154908060010154908060020154908060030154908060040154908060050160009054906101000a900460ff16908060050160019054906101000a900460ff16905087565b60008054906101000a900473ffffffffffffffffffffffffffffffffffffffff1673ffffffffffffffffffffffffffffffffffffffff166323b872dd3330866040518463ffffffff1660e01b815260040161069a93929190610b44565b602060405180830381600087803b1580156106b457600080fd5b505af11580156106c8573d6000803e3d6000fd5b505050506040513d601f19601f820116820180604052508101906106ec9190610931565b50600160003373ffffffffffffffffffffffffffffffffffffffff1673ffffffffffffffffffffffffffffffffffffffff168152602001908152602001600020600554908060018154018082558091505060019003906000526020600020016000909190919091505560036040518060e001604052806005548152602001868152602001858152602001848152602001838152602001600015158152602001600115158152509080600181540180825580915050600190039060005260206000209060060201600090919091909150600082015181600001556020820151816001015560408201518160020155606082015181600301556080820151816004015560a08201518160050160006101000a81548160ff02191690831515021790555060c08201518160050160016101000a81548160ff021916908315150217905550505060056000815480929190600101919050555050505050565b6002602052816000526040600020818154811061086057fe5b90600052602060002001600091509150505481565b6040518060e0016040528060008152602001600081526020016000815260200160008152602001600081526020016000151581526020016000151581525090565b6000813590506108c581610d3e565b92915050565b6000815190506108da81610d55565b92915050565b6000813590506108ef81610d6c565b92915050565b6000806040838503121561090857600080fd5b6000610916858286016108b6565b9250506020610927858286016108e0565b9150509250929050565b60006020828403121561094357600080fd5b6000610951848285016108cb565b91505092915050565b60006020828403121561096c57600080fd5b600061097a848285016108e0565b91505092915050565b6000806000806080858703121561099957600080fd5b60006109a7878288016108e0565b94505060206109b8878288016108e0565b93505060406109c9878288016108e0565b92505060606109da878288016108e0565b91505092959194509250565b60006109f28383610a98565b60e08301905092915050565b610a0781610d08565b82525050565b610a1681610cc0565b82525050565b6000610a2782610c97565b610a318185610caf565b9350610a3c83610c87565b8060005b83811015610a6d578151610a5488826109e6565b9750610a5f83610ca2565b925050600181019050610a40565b5085935050505092915050565b610a8381610cd2565b82525050565b610a9281610cd2565b82525050565b60e082016000820151610aae6000850182610b26565b506020820151610ac16020850182610b26565b506040820151610ad46040850182610b26565b506060820151610ae76060850182610b26565b506080820151610afa6080850182610b26565b5060a0820151610b0d60a0850182610a7a565b5060c0820151610b2060c0850182610a7a565b50505050565b610b2f81610cfe565b82525050565b610b3e81610cfe565b82525050565b6000606082019050610b5960008301866109fe565b610b666020830185610a0d565b610b736040830184610b35565b949350505050565b6000604082019050610b9060008301856109fe565b610b9d6020830184610b35565b9392505050565b60006020820190508181036000830152610bbe8184610a1c565b905092915050565b6000602082019050610bdb6000830184610b35565b92915050565b6000606082019050610bf66000830186610b35565b610c036020830185610b35565b610c106040830184610b35565b949350505050565b600060e082019050610c2d600083018a610b35565b610c3a6020830189610b35565b610c476040830188610b35565b610c546060830187610b35565b610c616080830186610b35565b610c6e60a0830185610a89565b610c7b60c0830184610a89565b98975050505050505050565b6000819050602082019050919050565b600081519050919050565b6000602082019050919050565b600082825260208201905092915050565b6000610ccb82610cde565b9050919050565b60008115159050919050565b600073ffffffffffffffffffffffffffffffffffffffff82169050919050565b6000819050919050565b6000610d1382610d1a565b9050919050565b6000610d2582610d2c565b9050919050565b6000610d3782610cde565b9050919050565b610d4781610cc0565b8114610d5257600080fd5b50565b610d5e81610cd2565b8114610d6957600080fd5b50565b610d7581610cfe565b8114610d8057600080fd5b5056fea264697066735822122053c394a564ef8e19b96eb7e5f8ccea385ee32ffeb80c4c4990bdd7bec446db2864736f6c634300060c0033",
  "immutableReferences": {},
  "source": "// SPDX-License-Identifier: MIT\npragma solidity >=0.6.0;\npragma experimental ABIEncoderV2;\n\nimport \"@openzeppelin/contracts/math/SafeMath.sol\";\nimport \"@openzeppelin/contracts/token/ERC20/IERC20.sol\";\n\ncontract Escrow {\n    using SafeMath for uint256;\n\n    struct BorrowTransaction {\n        uint256 index;\n        uint256 expiration;\n        uint256 daiAmount;\n        uint256 ethRequested;\n        uint interestRate;\n        bool fulfilled;\n        bool valid;\n    }\n\n    struct LoanTransaction {\n        uint256 index;\n        uint256 expiration;\n        uint256 amount;\n    }\n\n    IERC20 private _token;\n\n    mapping(address => uint[]) public borrowerToTransactionIndex;\n    mapping(address => uint[]) public loanerToTransactionIndex;\n\n    BorrowTransaction[] public borrowTransactions;\n    LoanTransaction[] public loanTransactions;\n\n    uint borrowTransactionLength;\n    uint loanTransactionLength;\n\n    constructor (address token) public {\n        _token = IERC20(token);\n        borrowTransactionLength = 0;\n        loanTransactionLength = 0;\n    }\n\n\n    function borrowerCollateralDeposit(uint256 expirationTimestamp, uint256 daiSupplied, uint256 ethRequested, uint interestRate) public {\n        _token.transferFrom(msg.sender, address(this), daiSupplied);\n\n        // Add the new index to the address's array of transactions\n        borrowerToTransactionIndex[msg.sender].push(borrowTransactionLength);\n\n        borrowTransactions.push(\n            BorrowTransaction(\n                borrowTransactionLength, \n                expirationTimestamp, \n                daiSupplied,\n                ethRequested,\n                interestRate,\n                false,\n                true\n            )\n        );\n\n        borrowTransactionLength++;\n    }\n\n    function refundCollateralDeposit(uint transactionIndex) public {\n        uint bTransactionIndex = borrowerToTransactionIndex[msg.sender][transactionIndex];\n\n        // Make sure we can withdraw\n        require(borrowTransactions[bTransactionIndex].fulfilled == false);\n\n        // Send tokens and zero-out the transaction\n        _token.transfer(msg.sender, borrowTransactions[bTransactionIndex].daiAmount);\n        borrowTransactions[bTransactionIndex].valid = false;\n\n    }\n\n    function getAddressBorrowRequests() public view returns(BorrowTransaction[] memory) {\n        uint borrowLength = borrowerToTransactionIndex[msg.sender].length;\n        BorrowTransaction[] memory txs = new BorrowTransaction[](borrowLength);\n\n        for (uint i = 0; i < borrowerToTransactionIndex[msg.sender].length; i++) {\n            uint borrowIndex = borrowerToTransactionIndex[msg.sender][i];\n\n            if (borrowTransactions[borrowIndex].valid) {\n                txs[i] = borrowTransactions[borrowIndex];\n            }\n        }\n\n        return txs;\n    }\n\n    // function borrowerCollateralDeposit(address payee, uint256 expirationTimestamp) public payable {}\n\n    // // param: payee - person receiving the funds\n    // function deposit(address payee, uint256 expirationTimestamp) public payable {\n    //     require(msg.value >= 1000, \"Must send at least 1000 wei\");\n\n\n    //     // If the user has made previous txs, find their index and add a transaction\n    //     if(addressToDeposits[payee].exists) {\n    //         deposits[addressToDeposits[payee].index].push(\n    //             Transaction(expirationTimestamp, msg.value)\n    //         );\n    //     } \n    //     // Otherwise, create a new mapping and create a new transaction array at the proper index\n    //     else {\n    //         uint newIndex = deposits.length;\n\n    //         addressToDeposits[payee] = AddressLocation(newIndex, true);\n\n    //         Transaction[] storage txs;\n    //         txs.push(Transaction(expirationTimestamp, msg.value));\n\n    //         deposits.push(txs);\n    //     }\n    // }\n\n    // // Returns a list of Transaction for the given address\n    // function getAddressDeposits(address payee) public view returns(Transaction[] memory) {\n    //     uint index = addressToDeposits[payee].index;\n\n    //     return deposits[index];\n    // }\n\n    // function getAllDeposits() public view returns(Transaction[] memory) {\n    //     Transaction[] storage txs;\n\n    //     for (uint i = 0; i < deposits.length; i++) {\n    //         for (uint j = 0; j < deposits[i].length; j++) {\n    //             Transaction memory t = deposits[i][j];\n    //             txs.push(t);\n    //         }\n    //     }\n\n    //     return txs;\n    // }\n\n    // // If able, withdraws the money in escrow to the owner\n    // function Withdraw(address payable recipient, uint transactionIndex) public {\n    //     uint index = addressToDeposits[recipient].index;\n\n    //     Transaction memory transaction = deposits[index][transactionIndex];\n\n    //     // Transaction memory transaction = deposits[recipient][transactionIndex];\n    //     uint256 expiration = transaction.expiration;\n    //     uint256 amount = transaction.amount;\n\n    //     require(expiration <= block.timestamp);\n\n    //     for (uint i = transactionIndex; i < deposits[index].length - 1; i++) {\n    //         deposits[index][i] = deposits[index][i + 1];\n    //     }\n    //     delete deposits[index][deposits[index].length - 1];\n    //     deposits[index].pop();\n        \n    //     recipient.transfer(amount);\n\n\n        \n        // for (uint i = transactionIndex; i < deposits[recipient].length - 1; i++) {\n        //     deposits[recipient][i] = deposits[recipient][i + 1];\n        // }\n        // delete deposits[recipient][deposits[recipient].length - 1];\n        // deposits[recipient].pop();\n        \n        // recipient.transfer(amount);\n    //}\n}",
  "sourcePath": "/home/alec/swap-share/src/contracts/Escrow.sol",
  "compiler": {
    "name": "solc",
    "version": "0.6.12+commit.27d51765.Emscripten.clang"
  },
  "schemaVersion": "3.3.2",
  "updatedAt": "2020-12-31T00:00:09.388Z",
  "networkType": "ethereum",
  "devdoc": {
    "kind": "dev",
    "methods": {},
    "version": 1
  },
  "userdoc": {
    "kind": "user",
    "methods": {},
    "version": 1
  }
}