{
  "contractName": "Escrow",
  "abi": [
    {
      "inputs": [
        {
          "internalType": "address",
          "name": "token",
          "type": "address"
        }
      ],
      "stateMutability": "nonpayable",
      "type": "constructor"
    },
    {
      "inputs": [
        {
          "internalType": "uint256",
          "name": "",
          "type": "uint256"
        }
      ],
      "name": "borrowTransactions",
      "outputs": [
        {
          "internalType": "uint256",
          "name": "index",
          "type": "uint256"
        },
        {
          "internalType": "uint256",
          "name": "expiration",
          "type": "uint256"
        },
        {
          "internalType": "uint256",
          "name": "amount",
          "type": "uint256"
        }
      ],
      "stateMutability": "view",
      "type": "function",
      "constant": true
    },
    {
      "inputs": [
        {
          "internalType": "address",
          "name": "",
          "type": "address"
        },
        {
          "internalType": "uint256",
          "name": "",
          "type": "uint256"
        }
      ],
      "name": "borrowerToTransactionIndex",
      "outputs": [
        {
          "internalType": "uint256",
          "name": "",
          "type": "uint256"
        }
      ],
      "stateMutability": "view",
      "type": "function",
      "constant": true
    },
    {
      "inputs": [
        {
          "internalType": "uint256",
          "name": "",
          "type": "uint256"
        }
      ],
      "name": "loanTransactions",
      "outputs": [
        {
          "internalType": "uint256",
          "name": "index",
          "type": "uint256"
        },
        {
          "internalType": "uint256",
          "name": "expiration",
          "type": "uint256"
        },
        {
          "internalType": "uint256",
          "name": "amount",
          "type": "uint256"
        }
      ],
      "stateMutability": "view",
      "type": "function",
      "constant": true
    },
    {
      "inputs": [
        {
          "internalType": "address",
          "name": "",
          "type": "address"
        },
        {
          "internalType": "uint256",
          "name": "",
          "type": "uint256"
        }
      ],
      "name": "loanerToTransactionIndex",
      "outputs": [
        {
          "internalType": "uint256",
          "name": "",
          "type": "uint256"
        }
      ],
      "stateMutability": "view",
      "type": "function",
      "constant": true
    },
    {
      "inputs": [
        {
          "internalType": "uint256",
          "name": "expirationTimestamp",
          "type": "uint256"
        },
        {
          "internalType": "uint256",
          "name": "amount",
          "type": "uint256"
        }
      ],
      "name": "borrowerCollateralDeposit",
      "outputs": [],
      "stateMutability": "nonpayable",
      "type": "function"
    },
    {
      "inputs": [
        {
          "internalType": "address payable",
          "name": "payee",
          "type": "address"
        },
        {
          "internalType": "uint256",
          "name": "transactionIndex",
          "type": "uint256"
        }
      ],
      "name": "refundCollateralDeposit",
      "outputs": [],
      "stateMutability": "nonpayable",
      "type": "function"
    }
  ],
  "bytecode": "0x608060405234801561001057600080fd5b506040516108173803806108178339818101604052810190610032919061009d565b806000806101000a81548173ffffffffffffffffffffffffffffffffffffffff021916908373ffffffffffffffffffffffffffffffffffffffff160217905550600060058190555060006006819055505061010f565b600081519050610097816100f8565b92915050565b6000602082840312156100af57600080fd5b60006100bd84828501610088565b91505092915050565b60006100d1826100d8565b9050919050565b600073ffffffffffffffffffffffffffffffffffffffff82169050919050565b610101816100c6565b811461010c57600080fd5b50565b6106f98061011e6000396000f3fe608060405234801561001057600080fd5b50600436106100625760003560e01c80634869dd4314610067578063a2766df914610099578063b32d334f146100c9578063bfd1e250146100fb578063c56332de1461012b578063dd837c0514610147575b600080fd5b610081600480360381019061007c91906104bc565b610163565b604051610090939291906105a0565b60405180910390f35b6100b360048036038101906100ae9190610457565b61019a565b6040516100c09190610585565b60405180910390f35b6100e360048036038101906100de91906104bc565b6101c8565b6040516100f2939291906105a0565b60405180910390f35b61011560048036038101906101109190610457565b6101ff565b6040516101229190610585565b60405180910390f35b6101456004803603810190610140919061041b565b61022d565b005b610161600480360381019061015c91906104e5565b610231565b005b6004818154811061017057fe5b90600052602060002090600302016000915090508060000154908060010154908060020154905083565b600160205281600052604060002081815481106101b357fe5b90600052602060002001600091509150505481565b600381815481106101d557fe5b90600052602060002090600302016000915090508060000154908060010154908060020154905083565b6002602052816000526040600020818154811061021857fe5b90600052602060002001600091509150505481565b5050565b60008054906101000a900473ffffffffffffffffffffffffffffffffffffffff1673ffffffffffffffffffffffffffffffffffffffff166323b872dd3330846040518463ffffffff1660e01b815260040161028e9392919061054e565b602060405180830381600087803b1580156102a857600080fd5b505af11580156102bc573d6000803e3d6000fd5b505050506040513d601f19601f820116820180604052508101906102e09190610493565b50600560008154809291906001019190505550600160003373ffffffffffffffffffffffffffffffffffffffff1673ffffffffffffffffffffffffffffffffffffffff168152602001908152602001600020600554908060018154018082558091505060019003906000526020600020016000909190919091505560036040518060600160405280600554815260200184815260200183815250908060018154018082558091505060019003906000526020600020906003020160009091909190915060008201518160000155602082015181600101556040820151816002015550505050565b6000813590506103d681610667565b92915050565b6000813590506103eb8161067e565b92915050565b60008151905061040081610695565b92915050565b600081359050610415816106ac565b92915050565b6000806040838503121561042e57600080fd5b600061043c858286016103dc565b925050602061044d85828601610406565b9150509250929050565b6000806040838503121561046a57600080fd5b6000610478858286016103c7565b925050602061048985828601610406565b9150509250929050565b6000602082840312156104a557600080fd5b60006104b3848285016103f1565b91505092915050565b6000602082840312156104ce57600080fd5b60006104dc84828501610406565b91505092915050565b600080604083850312156104f857600080fd5b600061050685828601610406565b925050602061051785828601610406565b9150509250929050565b61052a81610631565b82525050565b610539816105d7565b82525050565b61054881610627565b82525050565b60006060820190506105636000830186610521565b6105706020830185610530565b61057d604083018461053f565b949350505050565b600060208201905061059a600083018461053f565b92915050565b60006060820190506105b5600083018661053f565b6105c2602083018561053f565b6105cf604083018461053f565b949350505050565b60006105e282610607565b9050919050565b60006105f482610607565b9050919050565b60008115159050919050565b600073ffffffffffffffffffffffffffffffffffffffff82169050919050565b6000819050919050565b600061063c82610643565b9050919050565b600061064e82610655565b9050919050565b600061066082610607565b9050919050565b610670816105d7565b811461067b57600080fd5b50565b610687816105e9565b811461069257600080fd5b50565b61069e816105fb565b81146106a957600080fd5b50565b6106b581610627565b81146106c057600080fd5b5056fea2646970667358221220b2a9e7f5bbf7c32291320744611f9923182b014583205bdd17641a88ccb9386264736f6c634300060c0033",
  "immutableReferences": {},
  "source": "// SPDX-License-Identifier: MIT\npragma solidity >=0.6.0;\npragma experimental ABIEncoderV2;\n\nimport \"@openzeppelin/contracts/math/SafeMath.sol\";\nimport \"@openzeppelin/contracts/token/ERC20/IERC20.sol\";\n\ncontract Escrow {\n    using SafeMath for uint256;\n\n    struct BorrowTransaction {\n        uint256 index;\n        uint256 expiration;\n        uint256 amount;\n    }\n\n    struct LoanTransaction {\n        uint256 index;\n        uint256 expiration;\n        uint256 amount;\n    }\n\n    IERC20 private _token;\n\n    mapping(address => uint[]) public borrowerToTransactionIndex;\n    mapping(address => uint[]) public loanerToTransactionIndex;\n\n    BorrowTransaction[] public borrowTransactions;\n    LoanTransaction[] public loanTransactions;\n\n    uint borrowTransactionLength;\n    uint loanTransactionLength;\n\n    constructor (address token) public {\n        _token = IERC20(token);\n        borrowTransactionLength = 0;\n        loanTransactionLength = 0;\n    }\n\n\n    function borrowerCollateralDeposit(uint256 expirationTimestamp, uint amount) public {\n        _token.transferFrom(msg.sender, address(this), amount);\n\n        // There is a new borrow transaction so we increment\n        // Then add the new index to the address's array of transactions\n        borrowTransactionLength++;\n        borrowerToTransactionIndex[msg.sender].push(borrowTransactionLength);\n\n        borrowTransactions.push(\n            BorrowTransaction(borrowTransactionLength, expirationTimestamp, amount)\n        );\n    }\n\n    function refundCollateralDeposit(address payable payee, uint transactionIndex) public {\n\n\n    }\n\n    // function borrowerCollateralDeposit(address payee, uint256 expirationTimestamp) public payable {}\n\n    // // param: payee - person receiving the funds\n    // function deposit(address payee, uint256 expirationTimestamp) public payable {\n    //     require(msg.value >= 1000, \"Must send at least 1000 wei\");\n\n\n    //     // If the user has made previous txs, find their index and add a transaction\n    //     if(addressToDeposits[payee].exists) {\n    //         deposits[addressToDeposits[payee].index].push(\n    //             Transaction(expirationTimestamp, msg.value)\n    //         );\n    //     } \n    //     // Otherwise, create a new mapping and create a new transaction array at the proper index\n    //     else {\n    //         uint newIndex = deposits.length;\n\n    //         addressToDeposits[payee] = AddressLocation(newIndex, true);\n\n    //         Transaction[] storage txs;\n    //         txs.push(Transaction(expirationTimestamp, msg.value));\n\n    //         deposits.push(txs);\n    //     }\n    // }\n\n    // // Returns a list of Transaction for the given address\n    // function getAddressDeposits(address payee) public view returns(Transaction[] memory) {\n    //     uint index = addressToDeposits[payee].index;\n\n    //     return deposits[index];\n    // }\n\n    // function getAllDeposits() public view returns(Transaction[] memory) {\n    //     Transaction[] storage txs;\n\n    //     for (uint i = 0; i < deposits.length; i++) {\n    //         for (uint j = 0; j < deposits[i].length; j++) {\n    //             Transaction memory t = deposits[i][j];\n    //             txs.push(t);\n    //         }\n    //     }\n\n    //     return txs;\n    // }\n\n    // // If able, withdraws the money in escrow to the owner\n    // function Withdraw(address payable recipient, uint transactionIndex) public {\n    //     uint index = addressToDeposits[recipient].index;\n\n    //     Transaction memory transaction = deposits[index][transactionIndex];\n\n    //     // Transaction memory transaction = deposits[recipient][transactionIndex];\n    //     uint256 expiration = transaction.expiration;\n    //     uint256 amount = transaction.amount;\n\n    //     require(expiration <= block.timestamp);\n\n    //     for (uint i = transactionIndex; i < deposits[index].length - 1; i++) {\n    //         deposits[index][i] = deposits[index][i + 1];\n    //     }\n    //     delete deposits[index][deposits[index].length - 1];\n    //     deposits[index].pop();\n        \n    //     recipient.transfer(amount);\n\n\n        \n        // for (uint i = transactionIndex; i < deposits[recipient].length - 1; i++) {\n        //     deposits[recipient][i] = deposits[recipient][i + 1];\n        // }\n        // delete deposits[recipient][deposits[recipient].length - 1];\n        // deposits[recipient].pop();\n        \n        // recipient.transfer(amount);\n    //}\n}",
  "sourcePath": "/home/alec/test-dapp/src/contracts/Escrow.sol",
  "compiler": {
    "name": "solc",
    "version": "0.6.12+commit.27d51765.Emscripten.clang"
  },
  "schemaVersion": "3.3.2",
  "updatedAt": "2020-12-29T05:31:54.163Z",
  "networkType": "ethereum",
  "devdoc": {
    "kind": "dev",
    "methods": {},
    "version": 1
  },
  "userdoc": {
    "kind": "user",
    "methods": {},
    "version": 1
  }
}