{
  "contractName": "Escrow",
  "abi": [
    {
      "inputs": [
        {
          "internalType": "address",
          "name": "",
          "type": "address"
        },
        {
          "internalType": "uint256",
          "name": "",
          "type": "uint256"
        }
      ],
      "name": "deposits",
      "outputs": [
        {
          "internalType": "uint256",
          "name": "expiration",
          "type": "uint256"
        },
        {
          "internalType": "uint256",
          "name": "amount",
          "type": "uint256"
        }
      ],
      "stateMutability": "view",
      "type": "function",
      "constant": true
    },
    {
      "inputs": [
        {
          "internalType": "address",
          "name": "payee",
          "type": "address"
        },
        {
          "internalType": "uint256",
          "name": "expirationTimestamp",
          "type": "uint256"
        }
      ],
      "name": "deposit",
      "outputs": [],
      "stateMutability": "payable",
      "type": "function",
      "payable": true
    },
    {
      "inputs": [
        {
          "internalType": "address",
          "name": "payee",
          "type": "address"
        }
      ],
      "name": "getAllDeposits",
      "outputs": [
        {
          "components": [
            {
              "internalType": "uint256",
              "name": "expiration",
              "type": "uint256"
            },
            {
              "internalType": "uint256",
              "name": "amount",
              "type": "uint256"
            }
          ],
          "internalType": "struct Escrow.Transaction[]",
          "name": "",
          "type": "tuple[]"
        }
      ],
      "stateMutability": "view",
      "type": "function",
      "constant": true
    },
    {
      "inputs": [
        {
          "internalType": "address payable",
          "name": "recipient",
          "type": "address"
        },
        {
          "internalType": "uint256",
          "name": "transactionIndex",
          "type": "uint256"
        }
      ],
      "name": "Withdraw",
      "outputs": [],
      "stateMutability": "nonpayable",
      "type": "function"
    }
  ],
  "bytecode": "0x608060405234801561001057600080fd5b5061097c806100206000396000f3fe60806040526004361061003f5760003560e01c806347e7ef241461004457806352165b5914610060578063884edad91461009d578063d6d68177146100c6575b600080fd5b61005e600480360381019061005991906106bf565b610104565b005b34801561006c57600080fd5b506100876004803603810190610082919061065a565b6101df565b60405161009491906107fe565b60405180910390f35b3480156100a957600080fd5b506100c460048036038101906100bf9190610683565b610290565b005b3480156100d257600080fd5b506100ed60048036038101906100e891906106bf565b6105c3565b6040516100fb929190610840565b60405180910390f35b6103e8341015610149576040517f08c379a000000000000000000000000000000000000000000000000000000000815260040161014090610820565b60405180910390fd5b6000808373ffffffffffffffffffffffffffffffffffffffff1673ffffffffffffffffffffffffffffffffffffffff1681526020019081526020016000206040518060400160405280838152602001348152509080600181540180825580915050600190039060005260206000209060020201600090919091909150600082015181600001556020820151816001015550505050565b60606000808373ffffffffffffffffffffffffffffffffffffffff1673ffffffffffffffffffffffffffffffffffffffff168152602001908152602001600020805480602002602001604051908101604052809291908181526020016000905b828210156102855783829060005260206000209060020201604051806040016040529081600082015481526020016001820154815250508152602001906001019061023f565b505050509050919050565b610298610601565b6000808473ffffffffffffffffffffffffffffffffffffffff1673ffffffffffffffffffffffffffffffffffffffff16815260200190815260200160002082815481106102e157fe5b90600052602060002090600202016040518060400160405290816000820154815260200160018201548152505090506000816000015190506000826020015190504282111561032f57600080fd5b60008490505b60016000808873ffffffffffffffffffffffffffffffffffffffff1673ffffffffffffffffffffffffffffffffffffffff1681526020019081526020016000208054905003811015610456576000808773ffffffffffffffffffffffffffffffffffffffff1673ffffffffffffffffffffffffffffffffffffffff16815260200190815260200160002060018201815481106103cd57fe5b90600052602060002090600202016000808873ffffffffffffffffffffffffffffffffffffffff1673ffffffffffffffffffffffffffffffffffffffff168152602001908152602001600020828154811061042457fe5b906000526020600020906002020160008201548160000155600182015481600101559050508080600101915050610335565b506000808673ffffffffffffffffffffffffffffffffffffffff1673ffffffffffffffffffffffffffffffffffffffff16815260200190815260200160002060016000808873ffffffffffffffffffffffffffffffffffffffff1673ffffffffffffffffffffffffffffffffffffffff1681526020019081526020016000208054905003815481106104e457fe5b9060005260206000209060020201600080820160009055600182016000905550506000808673ffffffffffffffffffffffffffffffffffffffff1673ffffffffffffffffffffffffffffffffffffffff16815260200190815260200160002080548061054c57fe5b60019003818190600052602060002090600202016000808201600090556001820160009055505090558473ffffffffffffffffffffffffffffffffffffffff166108fc829081150290604051600060405180830381858888f193505050501580156105bb573d6000803e3d6000fd5b505050505050565b600060205281600052604060002081815481106105dc57fe5b9060005260206000209060020201600091509150508060000154908060010154905082565b604051806040016040528060008152602001600081525090565b60008135905061062a81610901565b92915050565b60008135905061063f81610918565b92915050565b6000813590506106548161092f565b92915050565b60006020828403121561066c57600080fd5b600061067a8482850161061b565b91505092915050565b6000806040838503121561069657600080fd5b60006106a485828601610630565b92505060206106b585828601610645565b9150509250929050565b600080604083850312156106d257600080fd5b60006106e08582860161061b565b92505060206106f185828601610645565b9150509250929050565b600061070783836107b1565b60408301905092915050565b600061071e82610879565b6107288185610891565b935061073383610869565b8060005b8381101561076457815161074b88826106fb565b975061075683610884565b925050600181019050610737565b5085935050505092915050565b600061077e601b836108a2565b91507f4d7573742073656e64206174206c6561737420313030302077656900000000006000830152602082019050919050565b6040820160008201516107c760008501826107e0565b5060208201516107da60208501826107e0565b50505050565b6107e9816108f7565b82525050565b6107f8816108f7565b82525050565b600060208201905081810360008301526108188184610713565b905092915050565b6000602082019050818103600083015261083981610771565b9050919050565b600060408201905061085560008301856107ef565b61086260208301846107ef565b9392505050565b6000819050602082019050919050565b600081519050919050565b6000602082019050919050565b600082825260208201905092915050565b600082825260208201905092915050565b60006108be826108d7565b9050919050565b60006108d0826108d7565b9050919050565b600073ffffffffffffffffffffffffffffffffffffffff82169050919050565b6000819050919050565b61090a816108b3565b811461091557600080fd5b50565b610921816108c5565b811461092c57600080fd5b50565b610938816108f7565b811461094357600080fd5b5056fea26469706673582212204a713133ef5b688dffbfe12233a157bf74f1ce05d64c7acc0d87f2b0206a191864736f6c634300060c0033",
  "immutableReferences": {},
  "source": "// SPDX-License-Identifier: MIT\npragma solidity >=0.6.0;\npragma experimental ABIEncoderV2;\n\nimport \"@openzeppelin/contracts/math/SafeMath.sol\";\n\ncontract Escrow {\n    using SafeMath for uint256;\n\n    struct Transaction {\n        uint256 expiration;\n        uint256 amount;\n    }\n\n    mapping(address => Transaction[]) public deposits;\n\n    // param: payee - person receiving the funds\n    function deposit(address payee, uint256 expirationTimestamp) public payable {\n        require(msg.value >= 1000, \"Must send at least 1000 wei\");\n\n        deposits[payee].push(\n            Transaction(expirationTimestamp, msg.value)\n        );\n    }\n\n    // Returns a list of Transaction for the given address\n    function getAllDeposits(address payee) public view returns(Transaction[] memory) {\n        return deposits[payee];\n    }\n\n    // If able, withdraws the money in escrow to the owner\n    function Withdraw(address payable recipient, uint transactionIndex) public {\n        Transaction memory transaction = deposits[recipient][transactionIndex];\n        uint256 expiration = transaction.expiration;\n        uint256 amount = transaction.amount;\n\n        require(expiration <= block.timestamp);\n        \n        for (uint i = transactionIndex; i < deposits[recipient].length - 1; i++) {\n            deposits[recipient][i] = deposits[recipient][i + 1];\n        }\n        delete deposits[recipient][deposits[recipient].length - 1];\n        deposits[recipient].pop();\n        \n        recipient.transfer(amount);\n    }\n}",
  "sourcePath": "/home/alec/test-dapp/src/contracts/Escrow.sol",
  "compiler": {
    "name": "solc",
    "version": "0.6.12+commit.27d51765.Emscripten.clang"
  },
  "schemaVersion": "3.3.2",
  "updatedAt": "2020-12-23T21:33:12.232Z",
  "networkType": "ethereum",
  "devdoc": {
    "kind": "dev",
    "methods": {},
    "version": 1
  },
  "userdoc": {
    "kind": "user",
    "methods": {},
    "version": 1
  }
}