{
  "contractName": "SwapShare",
  "abi": [
    {
      "inputs": [
        {
          "internalType": "address",
          "name": "token",
          "type": "address"
        }
      ],
      "stateMutability": "nonpayable",
      "type": "constructor"
    },
    {
      "inputs": [
        {
          "internalType": "uint256",
          "name": "expirationTimestamp",
          "type": "uint256"
        },
        {
          "internalType": "uint256",
          "name": "daiAmount",
          "type": "uint256"
        },
        {
          "internalType": "uint256",
          "name": "ethAmount",
          "type": "uint256"
        },
        {
          "internalType": "uint256",
          "name": "interestRate",
          "type": "uint256"
        }
      ],
      "name": "requestLoan",
      "outputs": [],
      "stateMutability": "nonpayable",
      "type": "function"
    },
    {
      "inputs": [
        {
          "internalType": "uint256",
          "name": "loanIndex",
          "type": "uint256"
        }
      ],
      "name": "cancelRequestedLoan",
      "outputs": [],
      "stateMutability": "nonpayable",
      "type": "function"
    },
    {
      "inputs": [
        {
          "internalType": "address",
          "name": "walletAddr",
          "type": "address"
        }
      ],
      "name": "getAddressBorrows",
      "outputs": [
        {
          "components": [
            {
              "internalType": "address payable",
              "name": "borrower",
              "type": "address"
            },
            {
              "internalType": "address payable",
              "name": "lender",
              "type": "address"
            },
            {
              "internalType": "uint256",
              "name": "index",
              "type": "uint256"
            },
            {
              "internalType": "uint256",
              "name": "expiration",
              "type": "uint256"
            },
            {
              "internalType": "uint256",
              "name": "daiAmount",
              "type": "uint256"
            },
            {
              "internalType": "uint256",
              "name": "ethAmount",
              "type": "uint256"
            },
            {
              "internalType": "uint256",
              "name": "ethPlusInterest",
              "type": "uint256"
            },
            {
              "internalType": "uint256",
              "name": "interestRate",
              "type": "uint256"
            },
            {
              "internalType": "enum SwapShare.LoanState",
              "name": "state",
              "type": "uint8"
            },
            {
              "internalType": "bool",
              "name": "valid",
              "type": "bool"
            }
          ],
          "internalType": "struct SwapShare.Loan[]",
          "name": "",
          "type": "tuple[]"
        }
      ],
      "stateMutability": "view",
      "type": "function",
      "constant": true
    },
    {
      "inputs": [
        {
          "internalType": "address",
          "name": "walletAddr",
          "type": "address"
        }
      ],
      "name": "getAllRequests",
      "outputs": [
        {
          "components": [
            {
              "internalType": "address payable",
              "name": "borrower",
              "type": "address"
            },
            {
              "internalType": "address payable",
              "name": "lender",
              "type": "address"
            },
            {
              "internalType": "uint256",
              "name": "index",
              "type": "uint256"
            },
            {
              "internalType": "uint256",
              "name": "expiration",
              "type": "uint256"
            },
            {
              "internalType": "uint256",
              "name": "daiAmount",
              "type": "uint256"
            },
            {
              "internalType": "uint256",
              "name": "ethAmount",
              "type": "uint256"
            },
            {
              "internalType": "uint256",
              "name": "ethPlusInterest",
              "type": "uint256"
            },
            {
              "internalType": "uint256",
              "name": "interestRate",
              "type": "uint256"
            },
            {
              "internalType": "enum SwapShare.LoanState",
              "name": "state",
              "type": "uint8"
            },
            {
              "internalType": "bool",
              "name": "valid",
              "type": "bool"
            }
          ],
          "internalType": "struct SwapShare.Loan[]",
          "name": "",
          "type": "tuple[]"
        }
      ],
      "stateMutability": "view",
      "type": "function",
      "constant": true
    },
    {
      "inputs": [
        {
          "internalType": "uint256",
          "name": "loanIndex",
          "type": "uint256"
        }
      ],
      "name": "fulfillLoan",
      "outputs": [],
      "stateMutability": "payable",
      "type": "function",
      "payable": true
    },
    {
      "inputs": [
        {
          "internalType": "address",
          "name": "walletAddr",
          "type": "address"
        }
      ],
      "name": "getAddressFulfilled",
      "outputs": [
        {
          "components": [
            {
              "internalType": "address payable",
              "name": "borrower",
              "type": "address"
            },
            {
              "internalType": "address payable",
              "name": "lender",
              "type": "address"
            },
            {
              "internalType": "uint256",
              "name": "index",
              "type": "uint256"
            },
            {
              "internalType": "uint256",
              "name": "expiration",
              "type": "uint256"
            },
            {
              "internalType": "uint256",
              "name": "daiAmount",
              "type": "uint256"
            },
            {
              "internalType": "uint256",
              "name": "ethAmount",
              "type": "uint256"
            },
            {
              "internalType": "uint256",
              "name": "ethPlusInterest",
              "type": "uint256"
            },
            {
              "internalType": "uint256",
              "name": "interestRate",
              "type": "uint256"
            },
            {
              "internalType": "enum SwapShare.LoanState",
              "name": "state",
              "type": "uint8"
            },
            {
              "internalType": "bool",
              "name": "valid",
              "type": "bool"
            }
          ],
          "internalType": "struct SwapShare.Loan[]",
          "name": "",
          "type": "tuple[]"
        }
      ],
      "stateMutability": "view",
      "type": "function",
      "constant": true
    },
    {
      "inputs": [
        {
          "internalType": "uint256",
          "name": "loanIndex",
          "type": "uint256"
        }
      ],
      "name": "repayLoan",
      "outputs": [],
      "stateMutability": "payable",
      "type": "function",
      "payable": true
    },
    {
      "inputs": [
        {
          "internalType": "uint256",
          "name": "loanIndex",
          "type": "uint256"
        }
      ],
      "name": "claimDefaultedLoan",
      "outputs": [],
      "stateMutability": "nonpayable",
      "type": "function"
    }
  ],
  "bytecode": "0x60806040523480156200001157600080fd5b50604051620020393803806200203983398181016040528101906200003791906200009d565b806000806101000a81548173ffffffffffffffffffffffffffffffffffffffff021916908373ffffffffffffffffffffffffffffffffffffffff16021790555060006004819055505062000117565b6000815190506200009781620000fd565b92915050565b600060208284031215620000b057600080fd5b6000620000c08482850162000086565b91505092915050565b6000620000d682620000dd565b9050919050565b600073ffffffffffffffffffffffffffffffffffffffff82169050919050565b6200010881620000c9565b81146200011457600080fd5b50565b611f1280620001276000396000f3fe60806040526004361061007b5760003560e01c80637d66219f1161004e5780637d66219f1461012b5780638ac9919814610168578063ab7b1c89146101a5578063f32eeda1146101c15761007b565b806327f8dce314610080578063387697e6146100a95780636c78184d146100c5578063753c7ff914610102575b600080fd5b34801561008c57600080fd5b506100a760048036038101906100a29190611941565b6101ea565b005b6100c360048036038101906100be9190611941565b610426565b005b3480156100d157600080fd5b506100ec60048036038101906100e791906118ef565b610676565b6040516100f99190611cb8565b60405180910390f35b34801561010e57600080fd5b506101296004803603810190610124919061196a565b610922565b005b34801561013757600080fd5b50610152600480360381019061014d91906118ef565b610c4f565b60405161015f9190611cb8565b60405180910390f35b34801561017457600080fd5b5061018f600480360381019061018a91906118ef565b610f70565b60405161019c9190611cb8565b60405180910390f35b6101bf60048036038101906101ba9190611941565b611245565b005b3480156101cd57600080fd5b506101e860048036038101906101e39190611941565b6114e1565b005b42600382815481106101f857fe5b906000526020600020906009020160030154111561021557600080fd5b3373ffffffffffffffffffffffffffffffffffffffff166003828154811061023957fe5b906000526020600020906009020160010160009054906101000a900473ffffffffffffffffffffffffffffffffffffffff1673ffffffffffffffffffffffffffffffffffffffff161461028b57600080fd5b6002600481111561029857fe5b600382815481106102a557fe5b906000526020600020906009020160080160009054906101000a900460ff1660048111156102cf57fe5b146102d957600080fd5b60008054906101000a900473ffffffffffffffffffffffffffffffffffffffff1673ffffffffffffffffffffffffffffffffffffffff1663a9059cbb6003838154811061032257fe5b906000526020600020906009020160010160009054906101000a900473ffffffffffffffffffffffffffffffffffffffff166003848154811061036157fe5b9060005260206000209060090201600401546040518363ffffffff1660e01b8152600401610390929190611c8f565b602060405180830381600087803b1580156103aa57600080fd5b505af11580156103be573d6000803e3d6000fd5b505050506040513d601f19601f820116820180604052508101906103e29190611918565b506004600382815481106103f257fe5b906000526020600020906009020160080160006101000a81548160ff0219169083600481111561041e57fe5b021790555050565b3373ffffffffffffffffffffffffffffffffffffffff166003828154811061044a57fe5b906000526020600020906009020160000160009054906101000a900473ffffffffffffffffffffffffffffffffffffffff1673ffffffffffffffffffffffffffffffffffffffff16141561049d57600080fd5b600060048111156104aa57fe5b600382815481106104b757fe5b906000526020600020906009020160080160009054906101000a900460ff1660048111156104e157fe5b146104eb57600080fd5b600381815481106104f857fe5b906000526020600020906009020160000160009054906101000a900473ffffffffffffffffffffffffffffffffffffffff1673ffffffffffffffffffffffffffffffffffffffff166108fc349081150290604051600060405180830381858888f1935050505015801561056f573d6000803e3d6000fd5b5060026003828154811061057f57fe5b906000526020600020906009020160080160006101000a81548160ff021916908360048111156105ab57fe5b021790555033600382815481106105be57fe5b906000526020600020906009020160010160006101000a81548173ffffffffffffffffffffffffffffffffffffffff021916908373ffffffffffffffffffffffffffffffffffffffff160217905550600260003373ffffffffffffffffffffffffffffffffffffffff1673ffffffffffffffffffffffffffffffffffffffff16815260200190815260200160002081908060018154018082558091505060019003906000526020600020016000909190919091505550565b60608060045467ffffffffffffffff8111801561069257600080fd5b506040519080825280602002602001820160405280156106cc57816020015b6106b9611824565b8152602001906001900390816106b15790505b50905060005b60045481101561091857600060048111156106e957fe5b600382815481106106f657fe5b906000526020600020906009020160080160009054906101000a900460ff16600481111561072057fe5b14801561079757508373ffffffffffffffffffffffffffffffffffffffff166003828154811061074c57fe5b906000526020600020906009020160000160009054906101000a900473ffffffffffffffffffffffffffffffffffffffff1673ffffffffffffffffffffffffffffffffffffffff1614155b1561090b57600381815481106107a957fe5b9060005260206000209060090201604051806101400160405290816000820160009054906101000a900473ffffffffffffffffffffffffffffffffffffffff1673ffffffffffffffffffffffffffffffffffffffff1673ffffffffffffffffffffffffffffffffffffffff1681526020016001820160009054906101000a900473ffffffffffffffffffffffffffffffffffffffff1673ffffffffffffffffffffffffffffffffffffffff1673ffffffffffffffffffffffffffffffffffffffff1681526020016002820154815260200160038201548152602001600482015481526020016005820154815260200160068201548152602001600782015481526020016008820160009054906101000a900460ff1660048111156108c957fe5b60048111156108d457fe5b81526020016008820160019054906101000a900460ff1615151515815250508282815181106108ff57fe5b60200260200101819052505b80806001019150506106d2565b5080915050919050565b60008054906101000a900473ffffffffffffffffffffffffffffffffffffffff1673ffffffffffffffffffffffffffffffffffffffff166323b872dd3330866040518463ffffffff1660e01b815260040161097f93929190611c58565b602060405180830381600087803b15801561099957600080fd5b505af11580156109ad573d6000803e3d6000fd5b505050506040513d601f19601f820116820180604052508101906109d19190611918565b50600160003373ffffffffffffffffffffffffffffffffffffffff1673ffffffffffffffffffffffffffffffffffffffff168152602001908152602001600020600454908060018154018082558091505060019003906000526020600020016000909190919091505560036040518061014001604052803373ffffffffffffffffffffffffffffffffffffffff168152602001600073ffffffffffffffffffffffffffffffffffffffff1681526020016004548152602001868152602001858152602001848152602001610ad3610ac46064610ab687896116b490919063ffffffff16565b61172490919063ffffffff16565b8661176e90919063ffffffff16565b815260200183815260200160006004811115610aeb57fe5b815260200160011515815250908060018154018082558091505060019003906000526020600020906009020160009091909190915060008201518160000160006101000a81548173ffffffffffffffffffffffffffffffffffffffff021916908373ffffffffffffffffffffffffffffffffffffffff16021790555060208201518160010160006101000a81548173ffffffffffffffffffffffffffffffffffffffff021916908373ffffffffffffffffffffffffffffffffffffffff16021790555060408201518160020155606082015181600301556080820151816004015560a0820151816005015560c0820151816006015560e082015181600701556101008201518160080160006101000a81548160ff02191690836004811115610c0f57fe5b02179055506101208201518160080160016101000a81548160ff021916908315150217905550505060046000815480929190600101919050555050505050565b60606000600160008473ffffffffffffffffffffffffffffffffffffffff1673ffffffffffffffffffffffffffffffffffffffff16815260200190815260200160002080549050905060608167ffffffffffffffff81118015610cb157600080fd5b50604051908082528060200260200182016040528015610ceb57816020015b610cd8611824565b815260200190600190039081610cd05790505b50905060005b82811015610f65576000600160008773ffffffffffffffffffffffffffffffffffffffff1673ffffffffffffffffffffffffffffffffffffffff1681526020019081526020016000208281548110610d4557fe5b9060005260206000200154905060006004811115610d5f57fe5b60038281548110610d6c57fe5b906000526020600020906009020160080160009054906101000a900460ff166004811115610d9657fe5b1480610de3575060026004811115610daa57fe5b60038281548110610db757fe5b906000526020600020906009020160080160009054906101000a900460ff166004811115610de157fe5b145b15610f575760038181548110610df557fe5b9060005260206000209060090201604051806101400160405290816000820160009054906101000a900473ffffffffffffffffffffffffffffffffffffffff1673ffffffffffffffffffffffffffffffffffffffff1673ffffffffffffffffffffffffffffffffffffffff1681526020016001820160009054906101000a900473ffffffffffffffffffffffffffffffffffffffff1673ffffffffffffffffffffffffffffffffffffffff1673ffffffffffffffffffffffffffffffffffffffff1681526020016002820154815260200160038201548152602001600482015481526020016005820154815260200160068201548152602001600782015481526020016008820160009054906101000a900460ff166004811115610f1557fe5b6004811115610f2057fe5b81526020016008820160019054906101000a900460ff161515151581525050838381518110610f4b57fe5b60200260200101819052505b508080600101915050610cf1565b508092505050919050565b60606000600260008473ffffffffffffffffffffffffffffffffffffffff1673ffffffffffffffffffffffffffffffffffffffff16815260200190815260200160002080549050905060608167ffffffffffffffff81118015610fd257600080fd5b5060405190808252806020026020018201604052801561100c57816020015b610ff9611824565b815260200190600190039081610ff15790505b50905060005b8281101561123a576000600260008773ffffffffffffffffffffffffffffffffffffffff1673ffffffffffffffffffffffffffffffffffffffff168152602001908152602001600020828154811061106657fe5b906000526020600020015490506002600481111561108057fe5b6003828154811061108d57fe5b906000526020600020906009020160080160009054906101000a900460ff1660048111156110b757fe5b141561122c57600381815481106110ca57fe5b9060005260206000209060090201604051806101400160405290816000820160009054906101000a900473ffffffffffffffffffffffffffffffffffffffff1673ffffffffffffffffffffffffffffffffffffffff1673ffffffffffffffffffffffffffffffffffffffff1681526020016001820160009054906101000a900473ffffffffffffffffffffffffffffffffffffffff1673ffffffffffffffffffffffffffffffffffffffff1673ffffffffffffffffffffffffffffffffffffffff1681526020016002820154815260200160038201548152602001600482015481526020016005820154815260200160068201548152602001600782015481526020016008820160009054906101000a900460ff1660048111156111ea57fe5b60048111156111f557fe5b81526020016008820160019054906101000a900460ff16151515158152505083838151811061122057fe5b60200260200101819052505b508080600101915050611012565b508092505050919050565b426003828154811061125357fe5b9060005260206000209060090201600301541161126f57600080fd5b3373ffffffffffffffffffffffffffffffffffffffff166003828154811061129357fe5b906000526020600020906009020160000160009054906101000a900473ffffffffffffffffffffffffffffffffffffffff1673ffffffffffffffffffffffffffffffffffffffff16146112e557600080fd5b600381815481106112f257fe5b90600052602060002090600902016006015434101561131057600080fd5b6003818154811061131d57fe5b906000526020600020906009020160010160009054906101000a900473ffffffffffffffffffffffffffffffffffffffff1673ffffffffffffffffffffffffffffffffffffffff166108fc349081150290604051600060405180830381858888f19350505050158015611394573d6000803e3d6000fd5b5060008054906101000a900473ffffffffffffffffffffffffffffffffffffffff1673ffffffffffffffffffffffffffffffffffffffff1663a9059cbb600383815481106113de57fe5b906000526020600020906009020160000160009054906101000a900473ffffffffffffffffffffffffffffffffffffffff166003848154811061141d57fe5b9060005260206000209060090201600401546040518363ffffffff1660e01b815260040161144c929190611c8f565b602060405180830381600087803b15801561146657600080fd5b505af115801561147a573d6000803e3d6000fd5b505050506040513d601f19601f8201168201806040525081019061149e9190611918565b5060038082815481106114ad57fe5b906000526020600020906009020160080160006101000a81548160ff021916908360048111156114d957fe5b021790555050565b600060048111156114ee57fe5b600382815481106114fb57fe5b906000526020600020906009020160080160009054906101000a900460ff16600481111561152557fe5b1461152f57600080fd5b3373ffffffffffffffffffffffffffffffffffffffff166003828154811061155357fe5b906000526020600020906009020160000160009054906101000a900473ffffffffffffffffffffffffffffffffffffffff1673ffffffffffffffffffffffffffffffffffffffff16146115a557600080fd5b60008054906101000a900473ffffffffffffffffffffffffffffffffffffffff1673ffffffffffffffffffffffffffffffffffffffff1663a9059cbb33600384815481106115ef57fe5b9060005260206000209060090201600401546040518363ffffffff1660e01b815260040161161e929190611c8f565b602060405180830381600087803b15801561163857600080fd5b505af115801561164c573d6000803e3d6000fd5b505050506040513d601f19601f820116820180604052508101906116709190611918565b5060016003828154811061168057fe5b906000526020600020906009020160080160006101000a81548160ff021916908360048111156116ac57fe5b021790555050565b6000808314156116c7576000905061171e565b60008284029050828482816116d857fe5b0414611719576040517f08c379a000000000000000000000000000000000000000000000000000000000815260040161171090611d1c565b60405180910390fd5b809150505b92915050565b600061176683836040518060400160405280601a81526020017f536166654d6174683a206469766973696f6e206279207a65726f0000000000008152506117c3565b905092915050565b6000808284019050838110156117b9576040517f08c379a00000000000000000000000000000000000000000000000000000000081526004016117b090611cfc565b60405180910390fd5b8091505092915050565b6000808311829061180a576040517f08c379a00000000000000000000000000000000000000000000000000000000081526004016118019190611cda565b60405180910390fd5b50600083858161181657fe5b049050809150509392505050565b604051806101400160405280600073ffffffffffffffffffffffffffffffffffffffff168152602001600073ffffffffffffffffffffffffffffffffffffffff168152602001600081526020016000815260200160008152602001600081526020016000815260200160008152602001600060048111156118a157fe5b81526020016000151581525090565b6000813590506118bf81611e97565b92915050565b6000815190506118d481611eae565b92915050565b6000813590506118e981611ec5565b92915050565b60006020828403121561190157600080fd5b600061190f848285016118b0565b91505092915050565b60006020828403121561192a57600080fd5b6000611938848285016118c5565b91505092915050565b60006020828403121561195357600080fd5b6000611961848285016118da565b91505092915050565b6000806000806080858703121561198057600080fd5b600061198e878288016118da565b945050602061199f878288016118da565b93505060406119b0878288016118da565b92505060606119c1878288016118da565b91505092959194509250565b60006119d98383611b6e565b6101408301905092915050565b6119ef81611dfe565b82525050565b6119fe81611da3565b82525050565b611a0d81611d91565b82525050565b6000611a1e82611d4c565b611a288185611d6f565b9350611a3383611d3c565b8060005b83811015611a64578151611a4b88826119cd565b9750611a5683611d62565b925050600181019050611a37565b5085935050505092915050565b611a7a81611db5565b82525050565b611a8981611e10565b82525050565b6000611a9a82611d57565b611aa48185611d80565b9350611ab4818560208601611e46565b611abd81611e79565b840191505092915050565b6000611ad5601b83611d80565b91507f536166654d6174683a206164646974696f6e206f766572666c6f7700000000006000830152602082019050919050565b6000611b15602183611d80565b91507f536166654d6174683a206d756c7469706c69636174696f6e206f766572666c6f60008301527f77000000000000000000000000000000000000000000000000000000000000006020830152604082019050919050565b61014082016000820151611b8560008501826119f5565b506020820151611b9860208501826119f5565b506040820151611bab6040850182611c3a565b506060820151611bbe6060850182611c3a565b506080820151611bd16080850182611c3a565b5060a0820151611be460a0850182611c3a565b5060c0820151611bf760c0850182611c3a565b5060e0820151611c0a60e0850182611c3a565b50610100820151611c1f610100850182611a80565b50610120820151611c34610120850182611a71565b50505050565b611c4381611df4565b82525050565b611c5281611df4565b82525050565b6000606082019050611c6d60008301866119e6565b611c7a6020830185611a04565b611c876040830184611c49565b949350505050565b6000604082019050611ca460008301856119e6565b611cb16020830184611c49565b9392505050565b60006020820190508181036000830152611cd28184611a13565b905092915050565b60006020820190508181036000830152611cf48184611a8f565b905092915050565b60006020820190508181036000830152611d1581611ac8565b9050919050565b60006020820190508181036000830152611d3581611b08565b9050919050565b6000819050602082019050919050565b600081519050919050565b600081519050919050565b6000602082019050919050565b600082825260208201905092915050565b600082825260208201905092915050565b6000611d9c82611dd4565b9050919050565b6000611dae82611dd4565b9050919050565b60008115159050919050565b6000819050611dcf82611e8a565b919050565b600073ffffffffffffffffffffffffffffffffffffffff82169050919050565b6000819050919050565b6000611e0982611e22565b9050919050565b6000611e1b82611dc1565b9050919050565b6000611e2d82611e34565b9050919050565b6000611e3f82611dd4565b9050919050565b60005b83811015611e64578082015181840152602081019050611e49565b83811115611e73576000848401525b50505050565b6000601f19601f8301169050919050565b60058110611e9457fe5b50565b611ea081611d91565b8114611eab57600080fd5b50565b611eb781611db5565b8114611ec257600080fd5b50565b611ece81611df4565b8114611ed957600080fd5b5056fea2646970667358221220eb8c0a05ee7c775cb9fb8115f62154bdab37cc0a24c3670e6c862bb841688d3164736f6c634300060c0033",
  "immutableReferences": {},
  "source": "// SPDX-License-Identifier: MIT\npragma solidity >=0.6.0;\npragma experimental ABIEncoderV2;\n\nimport \"@openzeppelin/contracts/math/SafeMath.sol\";\nimport \"@openzeppelin/contracts/token/ERC20/IERC20.sol\";\n\ncontract SwapShare {\n    using SafeMath for uint256;\n    \n    enum LoanState { \n        // Borrower has requested a loan\n        REQUESTED, \n        \n        // Borrower requested a loan and then canceled it\n        CANCELED, \n        \n        // A loan was requested and a lender fulfilled the loan\n        FULFILLED, \n        \n        // A loan was requested, fulfilled, and the borrower repaid the lender \n        SETTLED, \n        \n        // A loan was requested, fulfilled, and the borrower failed to repay before expiration\n        DEFAULTED \n    }\n\n    struct Loan {\n        address payable borrower;\n        address payable lender;\n\n        uint256 index;\n        uint256 expiration;\n        uint256 daiAmount;\n        uint256 ethAmount;\n        uint256 ethPlusInterest;\n\n        uint interestRate;\n\n        LoanState state;\n\n        bool valid;\n    }\n\n    IERC20 private _token;\n\n    mapping(address => uint[]) private _addressBorrowIndex;\n    mapping(address => uint[]) private _addressLendIndex;\n\n    Loan[] private _loans;\n\n    uint private _loansLength;\n\n\n    constructor (address token) public {\n        _token = IERC20(token);\n        _loansLength = 0;\n    }\n\n    // Create a new loan request\n    function requestLoan(uint256 expirationTimestamp, uint256 daiAmount, uint256 ethAmount, uint interestRate) public {\n        // Transfer DAI tokens to this contract\n        _token.transferFrom(msg.sender, address(this), daiAmount);\n\n        // Add the new index to the address's array of loans\n        _addressBorrowIndex[msg.sender].push(_loansLength);\n\n        // Create new loan transaction and add it to all loans\n        _loans.push(\n            Loan(\n                msg.sender,\n                address(0),\n                _loansLength, \n                expirationTimestamp, \n                daiAmount,\n                ethAmount,\n                ethAmount.add(ethAmount.mul(interestRate).div(100)),\n                interestRate,\n                LoanState.REQUESTED,\n                true\n            )\n        );\n\n        _loansLength++;\n    }\n\n\n    // Refund the collateral deposit for a requested loan\n    function cancelRequestedLoan(uint loanIndex) public {\n        // Ensure loan is in a REQUESTED state\n        require(_loans[loanIndex].state == LoanState.REQUESTED);\n\n        // Ensure loan belongs to msg.sender\n        require(_loans[loanIndex].borrower == msg.sender);\n\n        // Refund collateral DAI tokens\n        // Then, cancel the loan\n        _token.transfer(msg.sender, _loans[loanIndex].daiAmount);\n        _loans[loanIndex].state = LoanState.CANCELED;\n    }\n\n\n    // Get all loans that were created by the given borrower\n    function getAddressBorrows(address walletAddr) public view returns(Loan[] memory) {\n        uint numLoans = _addressBorrowIndex[walletAddr].length;\n        Loan[] memory requests = new Loan[](numLoans);\n\n        for (uint i = 0; i < numLoans; i++) {\n            uint loanIndex = _addressBorrowIndex[walletAddr][i];\n\n            if (_loans[loanIndex].state == LoanState.REQUESTED || _loans[loanIndex].state == LoanState.FULFILLED) {\n                requests[i] = _loans[loanIndex];\n            }\n        }\n\n        return requests;\n    }\n\n\n    // Get all loans in a REQUESTED state\n    function getAllRequests(address walletAddr) public view returns(Loan[] memory) {\n        Loan[] memory requests = new Loan[](_loansLength);\n\n        for (uint i = 0; i < _loansLength; i++) {\n            if (_loans[i].state == LoanState.REQUESTED && _loans[i].borrower != walletAddr) {\n                requests[i] = _loans[i];\n            }\n        }\n\n        return requests;\n    }\n\n\n    // Fulfill a requested loan\n    function fulfillLoan(uint loanIndex) public payable {\n        // Ensure loan is not fulfilled by the loan requestor\n        require(_loans[loanIndex].borrower != msg.sender);\n\n        // Ensure loan is currently in a REQUESTED STATE\n        require(_loans[loanIndex].state == LoanState.REQUESTED);\n\n        // Disperse the ETH funds to the borrower\n        _loans[loanIndex].borrower.transfer(msg.value);\n\n        // Update the loan to FULFILLED state\n        _loans[loanIndex].state = LoanState.FULFILLED;\n        _loans[loanIndex].lender = msg.sender;\n\n        // Track this wallet as the lender for this loan\n        _addressLendIndex[msg.sender].push(loanIndex);\n    }\n\n\n    // Retrieves all loans that the given wallet address has fulfilled\n    function getAddressFulfilled(address walletAddr) public view returns(Loan[] memory) {\n        uint numLoans = _addressLendIndex[walletAddr].length;\n        Loan[] memory fulfilledLoans = new Loan[](numLoans);\n\n        for (uint i = 0; i < numLoans; i++) {\n            uint loanIndex = _addressLendIndex[walletAddr][i];\n\n            if (_loans[loanIndex].state == LoanState.FULFILLED) {\n                fulfilledLoans[i] = _loans[loanIndex];\n            }\n        }\n\n        return fulfilledLoans;\n    }\n\n\n    // Repay a loan to the lender\n    function repayLoan(uint loanIndex) public payable {\n        // Ensure the loan has not exceeded its default window\n        require(_loans[loanIndex].expiration > block.timestamp);\n\n        // Ensure the borrower owns this loan\n        require(_loans[loanIndex].borrower == msg.sender);\n\n        // Ensure repayed loan is of the sufficient amount\n        require(msg.value >= _loans[loanIndex].ethPlusInterest);\n\n        // Transfer ETH from borrower to lender\n        _loans[loanIndex].lender.transfer(msg.value);\n\n        // Return DAI to borrower\n        _token.transfer(\n            _loans[loanIndex].borrower, \n            _loans[loanIndex].daiAmount\n        );\n\n        // Mark this loan as SETTLED\n        _loans[loanIndex].state = LoanState.SETTLED;\n    }\n\n\n    // Allow the lender to claim the collateral of a defaulted loan\n    function claimDefaultedLoan(uint loanIndex) public {\n        // Ensure the loan has exceeded its default window\n        require(_loans[loanIndex].expiration <= block.timestamp);\n\n        // Ensure the claimer is the lender\n        require(_loans[loanIndex].lender == msg.sender);\n\n        // Ensure the loan is in a fulfilled state\n        require(_loans[loanIndex].state == LoanState.FULFILLED);\n\n        // Send DAI to lender\n        _token.transfer(\n            _loans[loanIndex].lender, \n            _loans[loanIndex].daiAmount\n        );\n\n        // Mark this loan as DEFAULTED\n        _loans[loanIndex].state = LoanState.DEFAULTED;\n    }\n}",
  "sourcePath": "/home/alec/swap-share/src/contracts/SwapShare.sol",
  "compiler": {
    "name": "solc",
    "version": "0.6.12+commit.27d51765.Emscripten.clang"
  },
  "schemaVersion": "3.3.2",
  "updatedAt": "2021-01-02T21:57:17.210Z",
  "networkType": "ethereum",
  "devdoc": {
    "kind": "dev",
    "methods": {},
    "version": 1
  },
  "userdoc": {
    "kind": "user",
    "methods": {},
    "version": 1
  }
}