{
  "contractName": "SwapShare",
  "abi": [
    {
      "inputs": [
        {
          "internalType": "address",
          "name": "token",
          "type": "address"
        }
      ],
      "stateMutability": "nonpayable",
      "type": "constructor"
    },
    {
      "inputs": [
        {
          "internalType": "uint256",
          "name": "expirationTimeDelta",
          "type": "uint256"
        },
        {
          "internalType": "uint256",
          "name": "daiAmount",
          "type": "uint256"
        },
        {
          "internalType": "uint256",
          "name": "ethAmount",
          "type": "uint256"
        },
        {
          "internalType": "uint256",
          "name": "interestRate",
          "type": "uint256"
        }
      ],
      "name": "requestLoan",
      "outputs": [],
      "stateMutability": "nonpayable",
      "type": "function"
    },
    {
      "inputs": [
        {
          "internalType": "uint256",
          "name": "loanIndex",
          "type": "uint256"
        }
      ],
      "name": "cancelRequestedLoan",
      "outputs": [],
      "stateMutability": "nonpayable",
      "type": "function"
    },
    {
      "inputs": [
        {
          "internalType": "address",
          "name": "walletAddr",
          "type": "address"
        }
      ],
      "name": "getAddressBorrows",
      "outputs": [
        {
          "components": [
            {
              "internalType": "address payable",
              "name": "borrower",
              "type": "address"
            },
            {
              "internalType": "address payable",
              "name": "lender",
              "type": "address"
            },
            {
              "internalType": "uint256",
              "name": "index",
              "type": "uint256"
            },
            {
              "internalType": "uint256",
              "name": "expiration",
              "type": "uint256"
            },
            {
              "internalType": "uint256",
              "name": "expirationDelta",
              "type": "uint256"
            },
            {
              "internalType": "uint256",
              "name": "daiAmount",
              "type": "uint256"
            },
            {
              "internalType": "uint256",
              "name": "ethAmount",
              "type": "uint256"
            },
            {
              "internalType": "uint256",
              "name": "ethPlusInterest",
              "type": "uint256"
            },
            {
              "internalType": "uint256",
              "name": "interestRate",
              "type": "uint256"
            },
            {
              "internalType": "enum SwapShare.LoanState",
              "name": "state",
              "type": "uint8"
            },
            {
              "internalType": "bool",
              "name": "valid",
              "type": "bool"
            }
          ],
          "internalType": "struct SwapShare.Loan[]",
          "name": "",
          "type": "tuple[]"
        }
      ],
      "stateMutability": "view",
      "type": "function",
      "constant": true
    },
    {
      "inputs": [
        {
          "internalType": "address",
          "name": "walletAddr",
          "type": "address"
        }
      ],
      "name": "getAllRequests",
      "outputs": [
        {
          "components": [
            {
              "internalType": "address payable",
              "name": "borrower",
              "type": "address"
            },
            {
              "internalType": "address payable",
              "name": "lender",
              "type": "address"
            },
            {
              "internalType": "uint256",
              "name": "index",
              "type": "uint256"
            },
            {
              "internalType": "uint256",
              "name": "expiration",
              "type": "uint256"
            },
            {
              "internalType": "uint256",
              "name": "expirationDelta",
              "type": "uint256"
            },
            {
              "internalType": "uint256",
              "name": "daiAmount",
              "type": "uint256"
            },
            {
              "internalType": "uint256",
              "name": "ethAmount",
              "type": "uint256"
            },
            {
              "internalType": "uint256",
              "name": "ethPlusInterest",
              "type": "uint256"
            },
            {
              "internalType": "uint256",
              "name": "interestRate",
              "type": "uint256"
            },
            {
              "internalType": "enum SwapShare.LoanState",
              "name": "state",
              "type": "uint8"
            },
            {
              "internalType": "bool",
              "name": "valid",
              "type": "bool"
            }
          ],
          "internalType": "struct SwapShare.Loan[]",
          "name": "",
          "type": "tuple[]"
        }
      ],
      "stateMutability": "view",
      "type": "function",
      "constant": true
    },
    {
      "inputs": [
        {
          "internalType": "uint256",
          "name": "loanIndex",
          "type": "uint256"
        }
      ],
      "name": "fulfillLoan",
      "outputs": [],
      "stateMutability": "payable",
      "type": "function",
      "payable": true
    },
    {
      "inputs": [
        {
          "internalType": "address",
          "name": "walletAddr",
          "type": "address"
        }
      ],
      "name": "getAddressFulfilled",
      "outputs": [
        {
          "components": [
            {
              "internalType": "address payable",
              "name": "borrower",
              "type": "address"
            },
            {
              "internalType": "address payable",
              "name": "lender",
              "type": "address"
            },
            {
              "internalType": "uint256",
              "name": "index",
              "type": "uint256"
            },
            {
              "internalType": "uint256",
              "name": "expiration",
              "type": "uint256"
            },
            {
              "internalType": "uint256",
              "name": "expirationDelta",
              "type": "uint256"
            },
            {
              "internalType": "uint256",
              "name": "daiAmount",
              "type": "uint256"
            },
            {
              "internalType": "uint256",
              "name": "ethAmount",
              "type": "uint256"
            },
            {
              "internalType": "uint256",
              "name": "ethPlusInterest",
              "type": "uint256"
            },
            {
              "internalType": "uint256",
              "name": "interestRate",
              "type": "uint256"
            },
            {
              "internalType": "enum SwapShare.LoanState",
              "name": "state",
              "type": "uint8"
            },
            {
              "internalType": "bool",
              "name": "valid",
              "type": "bool"
            }
          ],
          "internalType": "struct SwapShare.Loan[]",
          "name": "",
          "type": "tuple[]"
        }
      ],
      "stateMutability": "view",
      "type": "function",
      "constant": true
    },
    {
      "inputs": [
        {
          "internalType": "uint256",
          "name": "loanIndex",
          "type": "uint256"
        }
      ],
      "name": "repayLoan",
      "outputs": [],
      "stateMutability": "payable",
      "type": "function",
      "payable": true
    },
    {
      "inputs": [
        {
          "internalType": "uint256",
          "name": "loanIndex",
          "type": "uint256"
        }
      ],
      "name": "claimDefaultedLoan",
      "outputs": [],
      "stateMutability": "nonpayable",
      "type": "function"
    }
  ],
  "bytecode": "0x60806040523480156200001157600080fd5b50604051620020d8380380620020d883398181016040528101906200003791906200009d565b806000806101000a81548173ffffffffffffffffffffffffffffffffffffffff021916908373ffffffffffffffffffffffffffffffffffffffff16021790555060006004819055505062000117565b6000815190506200009781620000fd565b92915050565b600060208284031215620000b057600080fd5b6000620000c08482850162000086565b91505092915050565b6000620000d682620000dd565b9050919050565b600073ffffffffffffffffffffffffffffffffffffffff82169050919050565b6200010881620000c9565b81146200011457600080fd5b50565b611fb180620001276000396000f3fe60806040526004361061007b5760003560e01c80637d66219f1161004e5780637d66219f1461012b5780638ac9919814610168578063ab7b1c89146101a5578063f32eeda1146101c15761007b565b806327f8dce314610080578063387697e6146100a95780636c78184d146100c5578063753c7ff914610102575b600080fd5b34801561008c57600080fd5b506100a760048036038101906100a291906119cb565b6101ea565b005b6100c360048036038101906100be91906119cb565b610426565b005b3480156100d157600080fd5b506100ec60048036038101906100e79190611979565b6106c9565b6040516100f99190611d57565b60405180910390f35b34801561010e57600080fd5b50610129600480360381019061012491906119f4565b61097f565b005b34801561013757600080fd5b50610152600480360381019061014d9190611979565b610cbe565b60405161015f9190611d57565b60405180910390f35b34801561017457600080fd5b5061018f600480360381019061018a9190611979565b610fe9565b60405161019c9190611d57565b60405180910390f35b6101bf60048036038101906101ba91906119cb565b6112c8565b005b3480156101cd57600080fd5b506101e860048036038101906101e391906119cb565b611564565b005b42600382815481106101f857fe5b90600052602060002090600a020160030154111561021557600080fd5b3373ffffffffffffffffffffffffffffffffffffffff166003828154811061023957fe5b90600052602060002090600a020160010160009054906101000a900473ffffffffffffffffffffffffffffffffffffffff1673ffffffffffffffffffffffffffffffffffffffff161461028b57600080fd5b6002600481111561029857fe5b600382815481106102a557fe5b90600052602060002090600a020160090160009054906101000a900460ff1660048111156102cf57fe5b146102d957600080fd5b60008054906101000a900473ffffffffffffffffffffffffffffffffffffffff1673ffffffffffffffffffffffffffffffffffffffff1663a9059cbb6003838154811061032257fe5b90600052602060002090600a020160010160009054906101000a900473ffffffffffffffffffffffffffffffffffffffff166003848154811061036157fe5b90600052602060002090600a0201600501546040518363ffffffff1660e01b8152600401610390929190611d2e565b602060405180830381600087803b1580156103aa57600080fd5b505af11580156103be573d6000803e3d6000fd5b505050506040513d601f19601f820116820180604052508101906103e291906119a2565b506004600382815481106103f257fe5b90600052602060002090600a020160090160006101000a81548160ff0219169083600481111561041e57fe5b021790555050565b3373ffffffffffffffffffffffffffffffffffffffff166003828154811061044a57fe5b90600052602060002090600a020160000160009054906101000a900473ffffffffffffffffffffffffffffffffffffffff1673ffffffffffffffffffffffffffffffffffffffff16141561049d57600080fd5b600060048111156104aa57fe5b600382815481106104b757fe5b90600052602060002090600a020160090160009054906101000a900460ff1660048111156104e157fe5b146104eb57600080fd5b600381815481106104f857fe5b90600052602060002090600a020160000160009054906101000a900473ffffffffffffffffffffffffffffffffffffffff1673ffffffffffffffffffffffffffffffffffffffff166108fc349081150290604051600060405180830381858888f1935050505015801561056f573d6000803e3d6000fd5b5060026003828154811061057f57fe5b90600052602060002090600a020160090160006101000a81548160ff021916908360048111156105ab57fe5b021790555033600382815481106105be57fe5b90600052602060002090600a020160010160006101000a81548173ffffffffffffffffffffffffffffffffffffffff021916908373ffffffffffffffffffffffffffffffffffffffff16021790555061063e426003838154811061061e57fe5b90600052602060002090600a02016004015461173790919063ffffffff16565b6003828154811061064b57fe5b90600052602060002090600a020160030181905550600260003373ffffffffffffffffffffffffffffffffffffffff1673ffffffffffffffffffffffffffffffffffffffff16815260200190815260200160002081908060018154018082558091505060019003906000526020600020016000909190919091505550565b60608060045467ffffffffffffffff811180156106e557600080fd5b5060405190808252806020026020018201604052801561071f57816020015b61070c6118a7565b8152602001906001900390816107045790505b50905060005b600454811015610975576000600481111561073c57fe5b6003828154811061074957fe5b90600052602060002090600a020160090160009054906101000a900460ff16600481111561077357fe5b1480156107ea57508373ffffffffffffffffffffffffffffffffffffffff166003828154811061079f57fe5b90600052602060002090600a020160000160009054906101000a900473ffffffffffffffffffffffffffffffffffffffff1673ffffffffffffffffffffffffffffffffffffffff1614155b1561096857600381815481106107fc57fe5b90600052602060002090600a0201604051806101600160405290816000820160009054906101000a900473ffffffffffffffffffffffffffffffffffffffff1673ffffffffffffffffffffffffffffffffffffffff1673ffffffffffffffffffffffffffffffffffffffff1681526020016001820160009054906101000a900473ffffffffffffffffffffffffffffffffffffffff1673ffffffffffffffffffffffffffffffffffffffff1673ffffffffffffffffffffffffffffffffffffffff168152602001600282015481526020016003820154815260200160048201548152602001600582015481526020016006820154815260200160078201548152602001600882015481526020016009820160009054906101000a900460ff16600481111561092657fe5b600481111561093157fe5b81526020016009820160019054906101000a900460ff16151515158152505082828151811061095c57fe5b60200260200101819052505b8080600101915050610725565b5080915050919050565b60008054906101000a900473ffffffffffffffffffffffffffffffffffffffff1673ffffffffffffffffffffffffffffffffffffffff166323b872dd3330866040518463ffffffff1660e01b81526004016109dc93929190611cf7565b602060405180830381600087803b1580156109f657600080fd5b505af1158015610a0a573d6000803e3d6000fd5b505050506040513d601f19601f82011682018060405250810190610a2e91906119a2565b50600160003373ffffffffffffffffffffffffffffffffffffffff1673ffffffffffffffffffffffffffffffffffffffff168152602001908152602001600020600454908060018154018082558091505060019003906000526020600020016000909190919091505560036040518061016001604052803373ffffffffffffffffffffffffffffffffffffffff168152602001600073ffffffffffffffffffffffffffffffffffffffff168152602001600454815260200160008152602001868152602001858152602001848152602001610b37610b286064610b1a878961178c90919063ffffffff16565b6117fc90919063ffffffff16565b8661173790919063ffffffff16565b815260200183815260200160006004811115610b4f57fe5b81526020016001151581525090806001815401808255809150506001900390600052602060002090600a020160009091909190915060008201518160000160006101000a81548173ffffffffffffffffffffffffffffffffffffffff021916908373ffffffffffffffffffffffffffffffffffffffff16021790555060208201518160010160006101000a81548173ffffffffffffffffffffffffffffffffffffffff021916908373ffffffffffffffffffffffffffffffffffffffff16021790555060408201518160020155606082015181600301556080820151816004015560a0820151816005015560c0820151816006015560e0820151816007015561010082015181600801556101208201518160090160006101000a81548160ff02191690836004811115610c7e57fe5b02179055506101408201518160090160016101000a81548160ff021916908315150217905550505060046000815480929190600101919050555050505050565b60606000600160008473ffffffffffffffffffffffffffffffffffffffff1673ffffffffffffffffffffffffffffffffffffffff16815260200190815260200160002080549050905060608167ffffffffffffffff81118015610d2057600080fd5b50604051908082528060200260200182016040528015610d5a57816020015b610d476118a7565b815260200190600190039081610d3f5790505b50905060005b82811015610fde576000600160008773ffffffffffffffffffffffffffffffffffffffff1673ffffffffffffffffffffffffffffffffffffffff1681526020019081526020016000208281548110610db457fe5b9060005260206000200154905060006004811115610dce57fe5b60038281548110610ddb57fe5b90600052602060002090600a020160090160009054906101000a900460ff166004811115610e0557fe5b1480610e52575060026004811115610e1957fe5b60038281548110610e2657fe5b90600052602060002090600a020160090160009054906101000a900460ff166004811115610e5057fe5b145b15610fd05760038181548110610e6457fe5b90600052602060002090600a0201604051806101600160405290816000820160009054906101000a900473ffffffffffffffffffffffffffffffffffffffff1673ffffffffffffffffffffffffffffffffffffffff1673ffffffffffffffffffffffffffffffffffffffff1681526020016001820160009054906101000a900473ffffffffffffffffffffffffffffffffffffffff1673ffffffffffffffffffffffffffffffffffffffff1673ffffffffffffffffffffffffffffffffffffffff168152602001600282015481526020016003820154815260200160048201548152602001600582015481526020016006820154815260200160078201548152602001600882015481526020016009820160009054906101000a900460ff166004811115610f8e57fe5b6004811115610f9957fe5b81526020016009820160019054906101000a900460ff161515151581525050838381518110610fc457fe5b60200260200101819052505b508080600101915050610d60565b508092505050919050565b60606000600260008473ffffffffffffffffffffffffffffffffffffffff1673ffffffffffffffffffffffffffffffffffffffff16815260200190815260200160002080549050905060608167ffffffffffffffff8111801561104b57600080fd5b5060405190808252806020026020018201604052801561108557816020015b6110726118a7565b81526020019060019003908161106a5790505b50905060005b828110156112bd576000600260008773ffffffffffffffffffffffffffffffffffffffff1673ffffffffffffffffffffffffffffffffffffffff16815260200190815260200160002082815481106110df57fe5b90600052602060002001549050600260048111156110f957fe5b6003828154811061110657fe5b90600052602060002090600a020160090160009054906101000a900460ff16600481111561113057fe5b14156112af576003818154811061114357fe5b90600052602060002090600a0201604051806101600160405290816000820160009054906101000a900473ffffffffffffffffffffffffffffffffffffffff1673ffffffffffffffffffffffffffffffffffffffff1673ffffffffffffffffffffffffffffffffffffffff1681526020016001820160009054906101000a900473ffffffffffffffffffffffffffffffffffffffff1673ffffffffffffffffffffffffffffffffffffffff1673ffffffffffffffffffffffffffffffffffffffff168152602001600282015481526020016003820154815260200160048201548152602001600582015481526020016006820154815260200160078201548152602001600882015481526020016009820160009054906101000a900460ff16600481111561126d57fe5b600481111561127857fe5b81526020016009820160019054906101000a900460ff1615151515815250508383815181106112a357fe5b60200260200101819052505b50808060010191505061108b565b508092505050919050565b42600382815481106112d657fe5b90600052602060002090600a020160030154116112f257600080fd5b3373ffffffffffffffffffffffffffffffffffffffff166003828154811061131657fe5b90600052602060002090600a020160000160009054906101000a900473ffffffffffffffffffffffffffffffffffffffff1673ffffffffffffffffffffffffffffffffffffffff161461136857600080fd5b6003818154811061137557fe5b90600052602060002090600a02016007015434101561139357600080fd5b600381815481106113a057fe5b90600052602060002090600a020160010160009054906101000a900473ffffffffffffffffffffffffffffffffffffffff1673ffffffffffffffffffffffffffffffffffffffff166108fc349081150290604051600060405180830381858888f19350505050158015611417573d6000803e3d6000fd5b5060008054906101000a900473ffffffffffffffffffffffffffffffffffffffff1673ffffffffffffffffffffffffffffffffffffffff1663a9059cbb6003838154811061146157fe5b90600052602060002090600a020160000160009054906101000a900473ffffffffffffffffffffffffffffffffffffffff16600384815481106114a057fe5b90600052602060002090600a0201600501546040518363ffffffff1660e01b81526004016114cf929190611d2e565b602060405180830381600087803b1580156114e957600080fd5b505af11580156114fd573d6000803e3d6000fd5b505050506040513d601f19601f8201168201806040525081019061152191906119a2565b50600380828154811061153057fe5b90600052602060002090600a020160090160006101000a81548160ff0219169083600481111561155c57fe5b021790555050565b6000600481111561157157fe5b6003828154811061157e57fe5b90600052602060002090600a020160090160009054906101000a900460ff1660048111156115a857fe5b146115b257600080fd5b3373ffffffffffffffffffffffffffffffffffffffff16600382815481106115d657fe5b90600052602060002090600a020160000160009054906101000a900473ffffffffffffffffffffffffffffffffffffffff1673ffffffffffffffffffffffffffffffffffffffff161461162857600080fd5b60008054906101000a900473ffffffffffffffffffffffffffffffffffffffff1673ffffffffffffffffffffffffffffffffffffffff1663a9059cbb336003848154811061167257fe5b90600052602060002090600a0201600501546040518363ffffffff1660e01b81526004016116a1929190611d2e565b602060405180830381600087803b1580156116bb57600080fd5b505af11580156116cf573d6000803e3d6000fd5b505050506040513d601f19601f820116820180604052508101906116f391906119a2565b5060016003828154811061170357fe5b90600052602060002090600a020160090160006101000a81548160ff0219169083600481111561172f57fe5b021790555050565b600080828401905083811015611782576040517f08c379a000000000000000000000000000000000000000000000000000000000815260040161177990611d9b565b60405180910390fd5b8091505092915050565b60008083141561179f57600090506117f6565b60008284029050828482816117b057fe5b04146117f1576040517f08c379a00000000000000000000000000000000000000000000000000000000081526004016117e890611dbb565b60405180910390fd5b809150505b92915050565b600061183e83836040518060400160405280601a81526020017f536166654d6174683a206469766973696f6e206279207a65726f000000000000815250611846565b905092915050565b6000808311829061188d576040517f08c379a00000000000000000000000000000000000000000000000000000000081526004016118849190611d79565b60405180910390fd5b50600083858161189957fe5b049050809150509392505050565b604051806101600160405280600073ffffffffffffffffffffffffffffffffffffffff168152602001600073ffffffffffffffffffffffffffffffffffffffff168152602001600081526020016000815260200160008152602001600081526020016000815260200160008152602001600081526020016000600481111561192b57fe5b81526020016000151581525090565b60008135905061194981611f36565b92915050565b60008151905061195e81611f4d565b92915050565b60008135905061197381611f64565b92915050565b60006020828403121561198b57600080fd5b60006119998482850161193a565b91505092915050565b6000602082840312156119b457600080fd5b60006119c28482850161194f565b91505092915050565b6000602082840312156119dd57600080fd5b60006119eb84828501611964565b91505092915050565b60008060008060808587031215611a0a57600080fd5b6000611a1887828801611964565b9450506020611a2987828801611964565b9350506040611a3a87828801611964565b9250506060611a4b87828801611964565b91505092959194509250565b6000611a638383611bf8565b6101608301905092915050565b611a7981611e9d565b82525050565b611a8881611e42565b82525050565b611a9781611e30565b82525050565b6000611aa882611deb565b611ab28185611e0e565b9350611abd83611ddb565b8060005b83811015611aee578151611ad58882611a57565b9750611ae083611e01565b925050600181019050611ac1565b5085935050505092915050565b611b0481611e54565b82525050565b611b1381611eaf565b82525050565b6000611b2482611df6565b611b2e8185611e1f565b9350611b3e818560208601611ee5565b611b4781611f18565b840191505092915050565b6000611b5f601b83611e1f565b91507f536166654d6174683a206164646974696f6e206f766572666c6f7700000000006000830152602082019050919050565b6000611b9f602183611e1f565b91507f536166654d6174683a206d756c7469706c69636174696f6e206f766572666c6f60008301527f77000000000000000000000000000000000000000000000000000000000000006020830152604082019050919050565b61016082016000820151611c0f6000850182611a7f565b506020820151611c226020850182611a7f565b506040820151611c356040850182611cd9565b506060820151611c486060850182611cd9565b506080820151611c5b6080850182611cd9565b5060a0820151611c6e60a0850182611cd9565b5060c0820151611c8160c0850182611cd9565b5060e0820151611c9460e0850182611cd9565b50610100820151611ca9610100850182611cd9565b50610120820151611cbe610120850182611b0a565b50610140820151611cd3610140850182611afb565b50505050565b611ce281611e93565b82525050565b611cf181611e93565b82525050565b6000606082019050611d0c6000830186611a70565b611d196020830185611a8e565b611d266040830184611ce8565b949350505050565b6000604082019050611d436000830185611a70565b611d506020830184611ce8565b9392505050565b60006020820190508181036000830152611d718184611a9d565b905092915050565b60006020820190508181036000830152611d938184611b19565b905092915050565b60006020820190508181036000830152611db481611b52565b9050919050565b60006020820190508181036000830152611dd481611b92565b9050919050565b6000819050602082019050919050565b600081519050919050565b600081519050919050565b6000602082019050919050565b600082825260208201905092915050565b600082825260208201905092915050565b6000611e3b82611e73565b9050919050565b6000611e4d82611e73565b9050919050565b60008115159050919050565b6000819050611e6e82611f29565b919050565b600073ffffffffffffffffffffffffffffffffffffffff82169050919050565b6000819050919050565b6000611ea882611ec1565b9050919050565b6000611eba82611e60565b9050919050565b6000611ecc82611ed3565b9050919050565b6000611ede82611e73565b9050919050565b60005b83811015611f03578082015181840152602081019050611ee8565b83811115611f12576000848401525b50505050565b6000601f19601f8301169050919050565b60058110611f3357fe5b50565b611f3f81611e30565b8114611f4a57600080fd5b50565b611f5681611e54565b8114611f6157600080fd5b50565b611f6d81611e93565b8114611f7857600080fd5b5056fea2646970667358221220dd2e572d4c08f930ee6ad19898298f1b56691160e11f7307be56ff488d72fc9b64736f6c634300060c0033",
  "immutableReferences": {},
  "source": "// SPDX-License-Identifier: MIT\npragma solidity >=0.6.0;\npragma experimental ABIEncoderV2;\n\nimport \"@openzeppelin/contracts/math/SafeMath.sol\";\nimport \"@openzeppelin/contracts/token/ERC20/IERC20.sol\";\n\ncontract SwapShare {\n    using SafeMath for uint256;\n    \n    enum LoanState { \n        // Borrower has requested a loan\n        REQUESTED, \n        \n        // Borrower requested a loan and then canceled it\n        CANCELED, \n        \n        // A loan was requested and a lender fulfilled the loan\n        FULFILLED, \n        \n        // A loan was requested, fulfilled, and the borrower repaid the lender \n        SETTLED, \n        \n        // A loan was requested, fulfilled, and the borrower failed to repay before expiration\n        DEFAULTED \n    }\n\n    struct Loan {\n        address payable borrower;\n        address payable lender;\n\n        uint256 index;\n        uint256 expiration;\n        uint256 expirationDelta;\n        uint256 daiAmount;\n        uint256 ethAmount;\n        uint256 ethPlusInterest;\n\n        uint interestRate;\n\n        LoanState state;\n\n        bool valid;\n    }\n\n    IERC20 private _token;\n\n    mapping(address => uint[]) private _addressBorrowIndex;\n    mapping(address => uint[]) private _addressLendIndex;\n\n    Loan[] private _loans;\n\n    uint private _loansLength;\n\n\n    constructor (address token) public {\n        _token = IERC20(token);\n        _loansLength = 0;\n    }\n\n    // Create a new loan request\n    function requestLoan(uint256 expirationTimeDelta, uint256 daiAmount, uint256 ethAmount, uint interestRate) public {\n        // Transfer DAI tokens to this contract\n        _token.transferFrom(msg.sender, address(this), daiAmount);\n\n        // Add the new index to the address's array of loans\n        _addressBorrowIndex[msg.sender].push(_loansLength);\n\n        // Create new loan transaction and add it to all loans\n        _loans.push(\n            Loan(\n                msg.sender,\n                address(0),\n                _loansLength, \n                0,\n                expirationTimeDelta, \n                daiAmount,\n                ethAmount,\n                ethAmount.add(ethAmount.mul(interestRate).div(100)),\n                interestRate,\n                LoanState.REQUESTED,\n                true\n            )\n        );\n\n        _loansLength++;\n    }\n\n\n    // Refund the collateral deposit for a requested loan\n    function cancelRequestedLoan(uint loanIndex) public {\n        // Ensure loan is in a REQUESTED state\n        require(_loans[loanIndex].state == LoanState.REQUESTED);\n\n        // Ensure loan belongs to msg.sender\n        require(_loans[loanIndex].borrower == msg.sender);\n\n        // Refund collateral DAI tokens\n        // Then, cancel the loan\n        _token.transfer(msg.sender, _loans[loanIndex].daiAmount);\n        _loans[loanIndex].state = LoanState.CANCELED;\n    }\n\n\n    // Get all loans that were created by the given borrower\n    function getAddressBorrows(address walletAddr) public view returns(Loan[] memory) {\n        uint numLoans = _addressBorrowIndex[walletAddr].length;\n        Loan[] memory requests = new Loan[](numLoans);\n\n        for (uint i = 0; i < numLoans; i++) {\n            uint loanIndex = _addressBorrowIndex[walletAddr][i];\n\n            if (_loans[loanIndex].state == LoanState.REQUESTED || _loans[loanIndex].state == LoanState.FULFILLED) {\n                requests[i] = _loans[loanIndex];\n            }\n        }\n\n        return requests;\n    }\n\n\n    // Get all loans in a REQUESTED state\n    function getAllRequests(address walletAddr) public view returns(Loan[] memory) {\n        Loan[] memory requests = new Loan[](_loansLength);\n\n        for (uint i = 0; i < _loansLength; i++) {\n            if (_loans[i].state == LoanState.REQUESTED && _loans[i].borrower != walletAddr) {\n                requests[i] = _loans[i];\n            }\n        }\n\n        return requests;\n    }\n\n\n    // Fulfill a requested loan\n    function fulfillLoan(uint loanIndex) public payable {\n        // Ensure loan is not fulfilled by the loan requestor\n        require(_loans[loanIndex].borrower != msg.sender);\n\n        // Ensure loan is currently in a REQUESTED STATE\n        require(_loans[loanIndex].state == LoanState.REQUESTED);\n\n        // Disperse the ETH funds to the borrower\n        _loans[loanIndex].borrower.transfer(msg.value);\n\n        // Update the loan to FULFILLED state\n        _loans[loanIndex].state = LoanState.FULFILLED;\n        _loans[loanIndex].lender = msg.sender;\n        _loans[loanIndex].expiration = _loans[loanIndex].expirationDelta.add(block.timestamp);\n\n        // Track this wallet as the lender for this loan\n        _addressLendIndex[msg.sender].push(loanIndex);\n    }\n\n\n    // Retrieves all loans that the given wallet address has fulfilled\n    function getAddressFulfilled(address walletAddr) public view returns(Loan[] memory) {\n        uint numLoans = _addressLendIndex[walletAddr].length;\n        Loan[] memory fulfilledLoans = new Loan[](numLoans);\n\n        for (uint i = 0; i < numLoans; i++) {\n            uint loanIndex = _addressLendIndex[walletAddr][i];\n\n            if (_loans[loanIndex].state == LoanState.FULFILLED) {\n                fulfilledLoans[i] = _loans[loanIndex];\n            }\n        }\n\n        return fulfilledLoans;\n    }\n\n\n    // Repay a loan to the lender\n    function repayLoan(uint loanIndex) public payable {\n        // Ensure the loan has not exceeded its default window\n        require(_loans[loanIndex].expiration > block.timestamp);\n\n        // Ensure the borrower owns this loan\n        require(_loans[loanIndex].borrower == msg.sender);\n\n        // Ensure repayed loan is of the sufficient amount\n        require(msg.value >= _loans[loanIndex].ethPlusInterest);\n\n        // Transfer ETH from borrower to lender\n        _loans[loanIndex].lender.transfer(msg.value);\n\n        // Return DAI to borrower\n        _token.transfer(\n            _loans[loanIndex].borrower, \n            _loans[loanIndex].daiAmount\n        );\n\n        // Mark this loan as SETTLED\n        _loans[loanIndex].state = LoanState.SETTLED;\n    }\n\n\n    // Allow the lender to claim the collateral of a defaulted loan\n    function claimDefaultedLoan(uint loanIndex) public {\n        // Ensure the loan has exceeded its default window\n        require(_loans[loanIndex].expiration <= block.timestamp);\n\n        // Ensure the claimer is the lender\n        require(_loans[loanIndex].lender == msg.sender);\n\n        // Ensure the loan is in a fulfilled state\n        require(_loans[loanIndex].state == LoanState.FULFILLED);\n\n        // Send DAI to lender\n        _token.transfer(\n            _loans[loanIndex].lender, \n            _loans[loanIndex].daiAmount\n        );\n\n        // Mark this loan as DEFAULTED\n        _loans[loanIndex].state = LoanState.DEFAULTED;\n    }\n}",
  "sourcePath": "/home/alec/swap-share/src/contracts/SwapShare.sol",
  "compiler": {
    "name": "solc",
    "version": "0.6.12+commit.27d51765.Emscripten.clang"
  },
  "schemaVersion": "3.3.2",
  "updatedAt": "2021-01-12T04:11:02.072Z",
  "networkType": "ethereum",
  "devdoc": {
    "kind": "dev",
    "methods": {},
    "version": 1
  },
  "userdoc": {
    "kind": "user",
    "methods": {},
    "version": 1
  }
}